{
  "contractName": "Ecommerce",
  "abi": [
    {
      "anonymous": false,
      "inputs": [
        {
          "indexed": true,
          "internalType": "uint256",
          "name": "transactionId",
          "type": "uint256"
        }
      ],
      "name": "TransactionCreated",
      "type": "event"
    },
    {
      "inputs": [],
      "name": "transactionCount",
      "outputs": [
        {
          "internalType": "uint256",
          "name": "",
          "type": "uint256"
        }
      ],
      "stateMutability": "view",
      "type": "function"
    },
    {
      "inputs": [
        {
          "internalType": "uint256",
          "name": "",
          "type": "uint256"
        }
      ],
      "name": "transactions",
      "outputs": [
        {
          "internalType": "string",
          "name": "customerName",
          "type": "string"
        },
        {
          "internalType": "uint256",
          "name": "deliveryDate",
          "type": "uint256"
        },
        {
          "internalType": "uint256",
          "name": "creationDate",
          "type": "uint256"
        },
        {
          "internalType": "uint256",
          "name": "total",
          "type": "uint256"
        },
        {
          "internalType": "uint256",
          "name": "totalDiscount",
          "type": "uint256"
        },
        {
          "internalType": "bool",
          "name": "claim",
          "type": "bool"
        },
        {
          "internalType": "uint256",
          "name": "productCount",
          "type": "uint256"
        },
        {
          "internalType": "string",
          "name": "paymentMethod",
          "type": "string"
        },
        {
          "internalType": "uint256",
          "name": "shippingCost",
          "type": "uint256"
        },
        {
          "internalType": "string",
          "name": "deliveryAddress",
          "type": "string"
        }
      ],
      "stateMutability": "view",
      "type": "function"
    },
    {
      "inputs": [
        {
          "internalType": "string",
          "name": "_customerName",
          "type": "string"
        },
        {
          "internalType": "uint256",
          "name": "_deliveryDate",
          "type": "uint256"
        },
        {
          "internalType": "uint256",
          "name": "_creationDate",
          "type": "uint256"
        },
        {
          "internalType": "uint256",
          "name": "_total",
          "type": "uint256"
        },
        {
          "internalType": "uint256",
          "name": "_totalDiscount",
          "type": "uint256"
        },
        {
          "internalType": "bool",
          "name": "_claim",
          "type": "bool"
        },
        {
          "internalType": "uint256",
          "name": "_productCount",
          "type": "uint256"
        },
        {
          "internalType": "string",
          "name": "_paymentMethod",
          "type": "string"
        },
        {
          "internalType": "uint256",
          "name": "_shippingCost",
          "type": "uint256"
        },
        {
          "internalType": "string",
          "name": "_deliveryAddress",
          "type": "string"
        }
      ],
      "name": "createTransaction",
      "outputs": [],
      "stateMutability": "nonpayable",
      "type": "function"
    }
  ],
  "bytecode": "0x608060405234801561000f575f80fd5b50610bd58061001d5f395ff3fe608060405234801561000f575f80fd5b506004361061003f575f3560e01c80639ace38c214610043578063b77bf6001461007c578063e9e5f8d81461009a575b5f80fd5b61005d60048036038101906100589190610439565b6100b6565b6040516100739a99989796959493929190610517565b60405180910390f35b6100846102a3565b60405161009191906105c6565b60405180910390f35b6100b460048036038101906100af9190610735565b6102a9565b005b5f602052805f5260405f205f91509050805f0180546100d49061088f565b80601f01602080910402602001604051908101604052809291908181526020018280546101009061088f565b801561014b5780601f106101225761010080835404028352916020019161014b565b820191905f5260205f20905b81548152906001019060200180831161012e57829003601f168201915b505050505090806001015490806002015490806003015490806004015490806005015f9054906101000a900460ff16908060060154908060070180546101909061088f565b80601f01602080910402602001604051908101604052809291908181526020018280546101bc9061088f565b80156102075780601f106101de57610100808354040283529160200191610207565b820191905f5260205f20905b8154815290600101906020018083116101ea57829003601f168201915b5050505050908060080154908060090180546102229061088f565b80601f016020809104026020016040519081016040528092919081815260200182805461024e9061088f565b80156102995780601f1061027057610100808354040283529160200191610299565b820191905f5260205f20905b81548152906001019060200180831161027c57829003601f168201915b505050505090508a565b60015481565b6040518061014001604052808b81526020018a81526020018981526020018881526020018781526020018615158152602001858152602001848152602001838152602001828152505f8060015481526020019081526020015f205f820151815f0190816103169190610a5c565b506020820151816001015560408201518160020155606082015181600301556080820151816004015560a0820151816005015f6101000a81548160ff02191690831515021790555060c0820151816006015560e082015181600701908161037d9190610a5c565b50610100820151816008015561012082015181600901908161039f9190610a5c565b509050506001547f20249019acac6e99959366f842671611cd943aa8071804678030725f38bc787e60405160405180910390a260015f8154809291906103e490610b58565b919050555050505050505050505050565b5f604051905090565b5f80fd5b5f80fd5b5f819050919050565b61041881610406565b8114610422575f80fd5b50565b5f813590506104338161040f565b92915050565b5f6020828403121561044e5761044d6103fe565b5b5f61045b84828501610425565b91505092915050565b5f81519050919050565b5f82825260208201905092915050565b5f5b8381101561049b578082015181840152602081019050610480565b5f8484015250505050565b5f601f19601f8301169050919050565b5f6104c082610464565b6104ca818561046e565b93506104da81856020860161047e565b6104e3816104a6565b840191505092915050565b6104f781610406565b82525050565b5f8115159050919050565b610511816104fd565b82525050565b5f610140820190508181035f830152610530818d6104b6565b905061053f602083018c6104ee565b61054c604083018b6104ee565b610559606083018a6104ee565b61056660808301896104ee565b61057360a0830188610508565b61058060c08301876104ee565b81810360e083015261059281866104b6565b90506105a26101008301856104ee565b8181036101208301526105b581846104b6565b90509b9a5050505050505050505050565b5f6020820190506105d95f8301846104ee565b92915050565b5f80fd5b5f80fd5b7f4e487b71000000000000000000000000000000000000000000000000000000005f52604160045260245ffd5b61061d826104a6565b810181811067ffffffffffffffff8211171561063c5761063b6105e7565b5b80604052505050565b5f61064e6103f5565b905061065a8282610614565b919050565b5f67ffffffffffffffff821115610679576106786105e7565b5b610682826104a6565b9050602081019050919050565b828183375f83830152505050565b5f6106af6106aa8461065f565b610645565b9050828152602081018484840111156106cb576106ca6105e3565b5b6106d684828561068f565b509392505050565b5f82601f8301126106f2576106f16105df565b5b813561070284826020860161069d565b91505092915050565b610714816104fd565b811461071e575f80fd5b50565b5f8135905061072f8161070b565b92915050565b5f805f805f805f805f806101408b8d031215610754576107536103fe565b5b5f8b013567ffffffffffffffff81111561077157610770610402565b5b61077d8d828e016106de565b9a5050602061078e8d828e01610425565b995050604061079f8d828e01610425565b98505060606107b08d828e01610425565b97505060806107c18d828e01610425565b96505060a06107d28d828e01610721565b95505060c06107e38d828e01610425565b94505060e08b013567ffffffffffffffff81111561080457610803610402565b5b6108108d828e016106de565b9350506101006108228d828e01610425565b9250506101208b013567ffffffffffffffff81111561084457610843610402565b5b6108508d828e016106de565b9150509295989b9194979a5092959850565b7f4e487b71000000000000000000000000000000000000000000000000000000005f52602260045260245ffd5b5f60028204905060018216806108a657607f821691505b6020821081036108b9576108b8610862565b5b50919050565b5f819050815f5260205f209050919050565b5f6020601f8301049050919050565b5f82821b905092915050565b5f6008830261091b7fffffffffffffffffffffffffffffffffffffffffffffffffffffffffffffffff826108e0565b61092586836108e0565b95508019841693508086168417925050509392505050565b5f819050919050565b5f61096061095b61095684610406565b61093d565b610406565b9050919050565b5f819050919050565b61097983610946565b61098d61098582610967565b8484546108ec565b825550505050565b5f90565b6109a1610995565b6109ac818484610970565b505050565b5b818110156109cf576109c45f82610999565b6001810190506109b2565b5050565b601f821115610a14576109e5816108bf565b6109ee846108d1565b810160208510156109fd578190505b610a11610a09856108d1565b8301826109b1565b50505b505050565b5f82821c905092915050565b5f610a345f1984600802610a19565b1980831691505092915050565b5f610a4c8383610a25565b9150826002028217905092915050565b610a6582610464565b67ffffffffffffffff811115610a7e57610a7d6105e7565b5b610a88825461088f565b610a938282856109d3565b5f60209050601f831160018114610ac4575f8415610ab2578287015190505b610abc8582610a41565b865550610b23565b601f198416610ad2866108bf565b5f5b82811015610af957848901518255600182019150602085019450602081019050610ad4565b86831015610b165784890151610b12601f891682610a25565b8355505b6001600288020188555050505b505050505050565b7f4e487b71000000000000000000000000000000000000000000000000000000005f52601160045260245ffd5b5f610b6282610406565b91507fffffffffffffffffffffffffffffffffffffffffffffffffffffffffffffffff8203610b9457610b93610b2b565b5b60018201905091905056fea264697066735822122071af3f225cd00d07db6f8b4a44dd029f2ba8070ebf43a360ab76e924cb91b50864736f6c63430008150033",
  "immutableReferences": {},
  "source": "// SPDX-License-Identifier: MIT\r\npragma solidity ^0.8.0;\r\n\r\ncontract Ecommerce {\r\n    struct Transaction {\r\n        string customerName;\r\n        uint deliveryDate;\r\n        uint creationDate;\r\n        uint total;\r\n        uint totalDiscount;\r\n        bool claim;\r\n        uint productCount;\r\n        string paymentMethod;\r\n        uint shippingCost;\r\n        string deliveryAddress;\r\n    }\r\n\r\n    mapping(uint => Transaction) public transactions;\r\n    uint public transactionCount;\r\n\r\n    event TransactionCreated(uint indexed transactionId);\r\n\r\n    function createTransaction(\r\n        string memory _customerName,\r\n        uint _deliveryDate,\r\n        uint _creationDate,\r\n        uint _total,\r\n        uint _totalDiscount,\r\n        bool _claim,\r\n        uint _productCount,\r\n        string memory _paymentMethod,\r\n        uint _shippingCost,\r\n        string memory _deliveryAddress\r\n    ) public {\r\n        transactions[transactionCount] = Transaction({\r\n            customerName: _customerName,\r\n            deliveryDate: _deliveryDate,\r\n            creationDate: _creationDate,\r\n            total: _total,\r\n            totalDiscount: _totalDiscount,\r\n            claim: _claim,\r\n            productCount: _productCount,\r\n            paymentMethod: _paymentMethod,\r\n            shippingCost: _shippingCost,\r\n            deliveryAddress: _deliveryAddress\r\n        });\r\n        emit TransactionCreated(transactionCount);\r\n        transactionCount++;\r\n    }\r\n}",
  "sourcePath": "C:\\Users\\henry\\OneDrive\\Desktop\\10mo Ciclo\\Tesis 2\\Tesis2\\FrontEnd\\Blockchain\\contracts\\Ecommerce.sol",
  "compiler": {
    "name": "solc",
    "version": "0.8.21+commit.d9974bed.Emscripten.clang"
  },
  "schemaVersion": "3.4.16",
  "updatedAt": "2024-04-19T00:17:18.599Z",
  "devdoc": {
    "kind": "dev",
    "methods": {},
    "version": 1
  },
  "userdoc": {
    "kind": "user",
    "methods": {},
    "version": 1
  }
}