{
  "contractName": "Ecommerce",
  "abi": [
    {
      "anonymous": false,
      "inputs": [
        {
          "indexed": true,
          "internalType": "uint256",
          "name": "transactionId",
          "type": "uint256"
        }
      ],
      "name": "TransactionCreated",
      "type": "event"
    },
    {
      "inputs": [],
      "name": "transactionCount",
      "outputs": [
        {
          "internalType": "uint256",
          "name": "",
          "type": "uint256"
        }
      ],
      "stateMutability": "view",
      "type": "function",
      "constant": true
    },
    {
      "inputs": [
        {
          "internalType": "uint256",
          "name": "",
          "type": "uint256"
        }
      ],
      "name": "transactions",
      "outputs": [
        {
          "internalType": "string",
          "name": "customerName",
          "type": "string"
        },
        {
          "internalType": "uint256",
          "name": "deliveryDate",
          "type": "uint256"
        },
        {
          "internalType": "uint256",
          "name": "creationDate",
          "type": "uint256"
        },
        {
          "internalType": "uint256",
          "name": "total",
          "type": "uint256"
        },
        {
          "internalType": "uint256",
          "name": "totalDiscount",
          "type": "uint256"
        },
        {
          "internalType": "uint256",
          "name": "productCount",
          "type": "uint256"
        },
        {
          "internalType": "string",
          "name": "paymentMethod",
          "type": "string"
        },
        {
          "internalType": "uint256",
          "name": "shippingCost",
          "type": "uint256"
        },
        {
          "internalType": "string",
          "name": "deliveryAddress",
          "type": "string"
        }
      ],
      "stateMutability": "view",
      "type": "function",
      "constant": true
    },
    {
      "inputs": [
        {
          "internalType": "string",
          "name": "_customerName",
          "type": "string"
        },
        {
          "internalType": "uint256",
          "name": "_deliveryDate",
          "type": "uint256"
        },
        {
          "internalType": "uint256",
          "name": "_creationDate",
          "type": "uint256"
        },
        {
          "internalType": "uint256",
          "name": "_total",
          "type": "uint256"
        },
        {
          "internalType": "uint256",
          "name": "_totalDiscount",
          "type": "uint256"
        },
        {
          "internalType": "uint256",
          "name": "_productCount",
          "type": "uint256"
        },
        {
          "internalType": "string",
          "name": "_paymentMethod",
          "type": "string"
        },
        {
          "internalType": "uint256",
          "name": "_shippingCost",
          "type": "uint256"
        },
        {
          "internalType": "string",
          "name": "_deliveryAddress",
          "type": "string"
        }
      ],
      "name": "createTransaction",
      "outputs": [],
      "stateMutability": "nonpayable",
      "type": "function"
    },
    {
      "inputs": [
        {
          "internalType": "uint256",
          "name": "_transactionId",
          "type": "uint256"
        }
      ],
      "name": "getTransaction",
      "outputs": [
        {
          "internalType": "string",
          "name": "customerName",
          "type": "string"
        },
        {
          "internalType": "uint256",
          "name": "deliveryDate",
          "type": "uint256"
        },
        {
          "internalType": "uint256",
          "name": "creationDate",
          "type": "uint256"
        },
        {
          "internalType": "uint256",
          "name": "total",
          "type": "uint256"
        },
        {
          "internalType": "uint256",
          "name": "totalDiscount",
          "type": "uint256"
        },
        {
          "internalType": "uint256",
          "name": "productCount",
          "type": "uint256"
        },
        {
          "internalType": "string",
          "name": "paymentMethod",
          "type": "string"
        },
        {
          "internalType": "uint256",
          "name": "shippingCost",
          "type": "uint256"
        },
        {
          "internalType": "string",
          "name": "deliveryAddress",
          "type": "string"
        }
      ],
      "stateMutability": "view",
      "type": "function",
      "constant": true
    },
    {
      "inputs": [],
      "name": "getAllTransactions",
      "outputs": [
        {
          "components": [
            {
              "internalType": "string",
              "name": "customerName",
              "type": "string"
            },
            {
              "internalType": "uint256",
              "name": "deliveryDate",
              "type": "uint256"
            },
            {
              "internalType": "uint256",
              "name": "creationDate",
              "type": "uint256"
            },
            {
              "internalType": "uint256",
              "name": "total",
              "type": "uint256"
            },
            {
              "internalType": "uint256",
              "name": "totalDiscount",
              "type": "uint256"
            },
            {
              "internalType": "uint256",
              "name": "productCount",
              "type": "uint256"
            },
            {
              "internalType": "string",
              "name": "paymentMethod",
              "type": "string"
            },
            {
              "internalType": "uint256",
              "name": "shippingCost",
              "type": "uint256"
            },
            {
              "internalType": "string",
              "name": "deliveryAddress",
              "type": "string"
            }
          ],
          "internalType": "struct Ecommerce.Transaction[]",
          "name": "",
          "type": "tuple[]"
        }
      ],
      "stateMutability": "view",
      "type": "function",
      "constant": true
    }
  ],
  "bytecode": "0x608060405234801561001057600080fd5b50610d5a806100206000396000f3fe608060405234801561001057600080fd5b50600436106100575760003560e01c806327506f531461005c57806333ea3dc81461007a5780636f2f0666146100a25780639ace38c2146100b7578063b77bf600146100ca575b600080fd5b6100646100e1565b60405161007191906109dc565b60405180910390f35b61008d610088366004610ac0565b6103d1565b60405161007199989796959493929190610ad9565b6100b56100b0366004610bed565b6105e5565b005b61008d6100c5366004610ac0565b610718565b6100d360015481565b604051908152602001610071565b6060600060015467ffffffffffffffff81111561010057610100610b4a565b60405190808252806020026020018201604052801561018057816020015b61016d6040518061012001604052806060815260200160008152602001600081526020016000815260200160008152602001600081526020016060815260200160008152602001606081525090565b81526020019060019003908161011e5790505b50905060005b6001548110156103cb5760008181526020819052604090819020815161012081019092528054829082906101b990610cb0565b80601f01602080910402602001604051908101604052809291908181526020018280546101e590610cb0565b80156102325780601f1061020757610100808354040283529160200191610232565b820191906000526020600020905b81548152906001019060200180831161021557829003601f168201915b50505050508152602001600182015481526020016002820154815260200160038201548152602001600482015481526020016005820154815260200160068201805461027d90610cb0565b80601f01602080910402602001604051908101604052809291908181526020018280546102a990610cb0565b80156102f65780601f106102cb576101008083540402835291602001916102f6565b820191906000526020600020905b8154815290600101906020018083116102d957829003601f168201915b505050505081526020016007820154815260200160088201805461031990610cb0565b80601f016020809104026020016040519081016040528092919081815260200182805461034590610cb0565b80156103925780601f1061036757610100808354040283529160200191610392565b820191906000526020600020905b81548152906001019060200180831161037557829003601f168201915b5050505050815250508282815181106103ad576103ad610ce5565b602002602001018190525080806103c390610cfb565b915050610186565b50919050565b6060600080600080600060606000606060008060008c8152602001908152602001600020905080600001816001015482600201548360030154846004015485600501548660060187600701548860080188805461042d90610cb0565b80601f016020809104026020016040519081016040528092919081815260200182805461045990610cb0565b80156104a65780601f1061047b576101008083540402835291602001916104a6565b820191906000526020600020905b81548152906001019060200180831161048957829003601f168201915b505050505098508280546104b990610cb0565b80601f01602080910402602001604051908101604052809291908181526020018280546104e590610cb0565b80156105325780601f1061050757610100808354040283529160200191610532565b820191906000526020600020905b81548152906001019060200180831161051557829003601f168201915b5050505050925080805461054590610cb0565b80601f016020809104026020016040519081016040528092919081815260200182805461057190610cb0565b80156105be5780601f10610593576101008083540402835291602001916105be565b820191906000526020600020905b8154815290600101906020018083116105a157829003601f168201915b50505050509050995099509950995099509950995099509950509193959799909294969850565b6040518061012001604052808a815260200189815260200188815260200187815260200186815260200185815260200184815260200183815260200182815250600080600154815260200190815260200160002060008201518160000190805190602001906106559291906108f6565b50602082810151600183015560408301516002830155606083015160038301556080830151600483015560a0830151600583015560c083015180516106a092600685019201906108f6565b5060e0820151600782015561010082015180516106c79160088401916020909101906108f6565b50506001546040519091507f20249019acac6e99959366f842671611cd943aa8071804678030725f38bc787e90600090a26001805490600061070883610cfb565b9190505550505050505050505050565b60006020819052908152604090208054819061073390610cb0565b80601f016020809104026020016040519081016040528092919081815260200182805461075f90610cb0565b80156107ac5780601f10610781576101008083540402835291602001916107ac565b820191906000526020600020905b81548152906001019060200180831161078f57829003601f168201915b5050505050908060010154908060020154908060030154908060040154908060050154908060060180546107df90610cb0565b80601f016020809104026020016040519081016040528092919081815260200182805461080b90610cb0565b80156108585780601f1061082d57610100808354040283529160200191610858565b820191906000526020600020905b81548152906001019060200180831161083b57829003601f168201915b50505050509080600701549080600801805461087390610cb0565b80601f016020809104026020016040519081016040528092919081815260200182805461089f90610cb0565b80156108ec5780601f106108c1576101008083540402835291602001916108ec565b820191906000526020600020905b8154815290600101906020018083116108cf57829003601f168201915b5050505050905089565b82805461090290610cb0565b90600052602060002090601f016020900481019282610924576000855561096a565b82601f1061093d57805160ff191683800117855561096a565b8280016001018555821561096a579182015b8281111561096a57825182559160200191906001019061094f565b5061097692915061097a565b5090565b5b80821115610976576000815560010161097b565b6000815180845260005b818110156109b557602081850181015186830182015201610999565b818111156109c7576000602083870101525b50601f01601f19169290920160200192915050565b60006020808301818452808551808352604092508286019150828160051b87010184880160005b83811015610ab257603f1989840301855281516101208151818652610a2a8287018261098f565b838b0151878c0152898401518a880152606080850151908801526080808501519088015260a0808501519088015260c080850151888303828a01529193509150610a74838261098f565b9250505060e08083015181870152506101008083015192508582038187015250610a9e818361098f565b968901969450505090860190600101610a03565b509098975050505050505050565b600060208284031215610ad257600080fd5b5035919050565b6000610120808352610aed8184018d61098f565b90508a60208401528960408401528860608401528760808401528660a084015282810360c0840152610b1f818761098f565b90508460e0840152828103610100840152610b3a818561098f565b9c9b505050505050505050505050565b634e487b7160e01b600052604160045260246000fd5b600082601f830112610b7157600080fd5b813567ffffffffffffffff80821115610b8c57610b8c610b4a565b604051601f8301601f19908116603f01168101908282118183101715610bb457610bb4610b4a565b81604052838152866020858801011115610bcd57600080fd5b836020870160208301376000602085830101528094505050505092915050565b60008060008060008060008060006101208a8c031215610c0c57600080fd5b893567ffffffffffffffff80821115610c2457600080fd5b610c308d838e01610b60565b9a5060208c0135995060408c0135985060608c0135975060808c0135965060a08c0135955060c08c0135915080821115610c6957600080fd5b610c758d838e01610b60565b945060e08c013593506101008c0135915080821115610c9357600080fd5b50610ca08c828d01610b60565b9150509295985092959850929598565b600181811c90821680610cc457607f821691505b602082108114156103cb57634e487b7160e01b600052602260045260246000fd5b634e487b7160e01b600052603260045260246000fd5b6000600019821415610d1d57634e487b7160e01b600052601160045260246000fd5b506001019056fea2646970667358221220d7091306827f46902c9cb8205be416d6629f5cfdbbce01f8454530beecb7e1b564736f6c634300080b0033",
  "immutableReferences": {},
  "source": "// SPDX-License-Identifier: MIT\r\npragma solidity ^0.8.0;\r\n\r\ncontract Ecommerce {\r\n    struct Transaction {\r\n        string customerName;\r\n        uint deliveryDate;\r\n        uint creationDate;\r\n        uint total;\r\n        uint totalDiscount;\r\n        uint productCount;\r\n        string paymentMethod;\r\n        uint shippingCost;\r\n        string deliveryAddress;\r\n    }\r\n\r\n    mapping(uint => Transaction) public transactions;\r\n    uint public transactionCount;\r\n\r\n    event TransactionCreated(uint indexed transactionId);\r\n\r\n    function createTransaction(\r\n        string memory _customerName,\r\n        uint _deliveryDate,\r\n        uint _creationDate,\r\n        uint _total,\r\n        uint _totalDiscount,\r\n        uint _productCount,\r\n        string memory _paymentMethod,\r\n        uint _shippingCost,\r\n        string memory _deliveryAddress\r\n    ) public {\r\n        transactions[transactionCount] = Transaction({\r\n            customerName: _customerName,\r\n            deliveryDate: _deliveryDate,\r\n            creationDate: _creationDate,\r\n            total: _total,\r\n            totalDiscount: _totalDiscount,\r\n            productCount: _productCount,\r\n            paymentMethod: _paymentMethod,\r\n            shippingCost: _shippingCost,\r\n            deliveryAddress: _deliveryAddress\r\n        });\r\n        emit TransactionCreated(transactionCount);\r\n        transactionCount++;\r\n    }\r\n\r\n    function getTransaction(uint _transactionId) public view returns (\r\n        string memory customerName,\r\n        uint deliveryDate,\r\n        uint creationDate,\r\n        uint total,\r\n        uint totalDiscount,\r\n        uint productCount,\r\n        string memory paymentMethod,\r\n        uint shippingCost,\r\n        string memory deliveryAddress\r\n    ) {\r\n        Transaction storage transaction = transactions[_transactionId];\r\n        return (\r\n            transaction.customerName,\r\n            transaction.deliveryDate,\r\n            transaction.creationDate,\r\n            transaction.total,\r\n            transaction.totalDiscount,\r\n            transaction.productCount,\r\n            transaction.paymentMethod,\r\n            transaction.shippingCost,\r\n            transaction.deliveryAddress\r\n        );\r\n    }\r\n\r\n    function getAllTransactions() public view returns (Transaction[] memory) {\r\n        Transaction[] memory allTransactions = new Transaction[](transactionCount);\r\n        for (uint i = 0; i < transactionCount; i++) {\r\n            allTransactions[i] = transactions[i];\r\n        }\r\n        return allTransactions;\r\n    }\r\n}",
  "sourcePath": "C:\\Users\\henry\\OneDrive\\Desktop\\10mo Ciclo\\Tesis 2\\Tesis2\\FrontEnd\\react-frontend\\src\\Blockchain\\contracts\\Ecommerce.sol",
  "compiler": {
    "name": "solc",
    "version": "0.8.11+commit.d7f03943.Emscripten.clang"
  },
  "schemaVersion": "3.4.16",
  "updatedAt": "2024-04-25T20:37:07.854Z",
  "networkType": "ethereum",
  "devdoc": {
    "kind": "dev",
    "methods": {},
    "version": 1
  },
  "userdoc": {
    "kind": "user",
    "methods": {},
    "version": 1
  }
}