{
  "contractName": "Ecommerce",
  "abi": [
    {
      "anonymous": false,
      "inputs": [
        {
          "indexed": true,
          "internalType": "uint256",
          "name": "transactionId",
          "type": "uint256"
        }
      ],
      "name": "TransactionCreated",
      "type": "event"
    },
    {
      "inputs": [
        {
          "internalType": "uint256",
          "name": "",
          "type": "uint256"
        }
      ],
      "name": "products",
      "outputs": [
        {
          "internalType": "string",
          "name": "idTransaction",
          "type": "string"
        },
        {
          "internalType": "uint256",
          "name": "idProduct",
          "type": "uint256"
        },
        {
          "internalType": "string",
          "name": "Name",
          "type": "string"
        },
        {
          "internalType": "uint256",
          "name": "Price",
          "type": "uint256"
        },
        {
          "internalType": "uint256",
          "name": "Count",
          "type": "uint256"
        },
        {
          "internalType": "string",
          "name": "NameShop",
          "type": "string"
        },
        {
          "internalType": "uint256",
          "name": "Discount",
          "type": "uint256"
        }
      ],
      "stateMutability": "view",
      "type": "function",
      "constant": true
    },
    {
      "inputs": [],
      "name": "transactionCount",
      "outputs": [
        {
          "internalType": "uint256",
          "name": "",
          "type": "uint256"
        }
      ],
      "stateMutability": "view",
      "type": "function",
      "constant": true
    },
    {
      "inputs": [],
      "name": "transactionProductCount",
      "outputs": [
        {
          "internalType": "uint256",
          "name": "",
          "type": "uint256"
        }
      ],
      "stateMutability": "view",
      "type": "function",
      "constant": true
    },
    {
      "inputs": [
        {
          "internalType": "uint256",
          "name": "",
          "type": "uint256"
        }
      ],
      "name": "transactions",
      "outputs": [
        {
          "internalType": "string",
          "name": "customerName",
          "type": "string"
        },
        {
          "internalType": "uint256",
          "name": "deliveryDate",
          "type": "uint256"
        },
        {
          "internalType": "uint256",
          "name": "creationDate",
          "type": "uint256"
        },
        {
          "internalType": "uint256",
          "name": "total",
          "type": "uint256"
        },
        {
          "internalType": "uint256",
          "name": "totalDiscount",
          "type": "uint256"
        },
        {
          "internalType": "uint256",
          "name": "productCount",
          "type": "uint256"
        },
        {
          "internalType": "string",
          "name": "paymentMethod",
          "type": "string"
        },
        {
          "internalType": "uint256",
          "name": "shippingCost",
          "type": "uint256"
        },
        {
          "internalType": "string",
          "name": "deliveryAddress",
          "type": "string"
        }
      ],
      "stateMutability": "view",
      "type": "function",
      "constant": true
    },
    {
      "inputs": [
        {
          "internalType": "string",
          "name": "_customerName",
          "type": "string"
        },
        {
          "internalType": "uint256",
          "name": "_deliveryDate",
          "type": "uint256"
        },
        {
          "internalType": "uint256",
          "name": "_creationDate",
          "type": "uint256"
        },
        {
          "internalType": "uint256",
          "name": "_total",
          "type": "uint256"
        },
        {
          "internalType": "uint256",
          "name": "_totalDiscount",
          "type": "uint256"
        },
        {
          "internalType": "uint256",
          "name": "_productCount",
          "type": "uint256"
        },
        {
          "internalType": "string",
          "name": "_paymentMethod",
          "type": "string"
        },
        {
          "internalType": "uint256",
          "name": "_shippingCost",
          "type": "uint256"
        },
        {
          "internalType": "string",
          "name": "_deliveryAddress",
          "type": "string"
        }
      ],
      "name": "createTransaction",
      "outputs": [],
      "stateMutability": "nonpayable",
      "type": "function"
    },
    {
      "inputs": [
        {
          "internalType": "string",
          "name": "_idTransaction",
          "type": "string"
        },
        {
          "internalType": "uint256",
          "name": "_idProduct",
          "type": "uint256"
        },
        {
          "internalType": "string",
          "name": "_nameProduct",
          "type": "string"
        },
        {
          "internalType": "uint256",
          "name": "_priceProduct",
          "type": "uint256"
        },
        {
          "internalType": "uint256",
          "name": "_count",
          "type": "uint256"
        },
        {
          "internalType": "string",
          "name": "_nameShop",
          "type": "string"
        },
        {
          "internalType": "uint256",
          "name": "_discount",
          "type": "uint256"
        }
      ],
      "name": "createProductTransaction",
      "outputs": [],
      "stateMutability": "nonpayable",
      "type": "function"
    },
    {
      "inputs": [
        {
          "internalType": "uint256",
          "name": "_transactionId",
          "type": "uint256"
        }
      ],
      "name": "getTransaction",
      "outputs": [
        {
          "internalType": "string",
          "name": "customerName",
          "type": "string"
        },
        {
          "internalType": "uint256",
          "name": "deliveryDate",
          "type": "uint256"
        },
        {
          "internalType": "uint256",
          "name": "creationDate",
          "type": "uint256"
        },
        {
          "internalType": "uint256",
          "name": "total",
          "type": "uint256"
        },
        {
          "internalType": "uint256",
          "name": "totalDiscount",
          "type": "uint256"
        },
        {
          "internalType": "uint256",
          "name": "productCount",
          "type": "uint256"
        },
        {
          "internalType": "string",
          "name": "paymentMethod",
          "type": "string"
        },
        {
          "internalType": "uint256",
          "name": "shippingCost",
          "type": "uint256"
        },
        {
          "internalType": "string",
          "name": "deliveryAddress",
          "type": "string"
        }
      ],
      "stateMutability": "view",
      "type": "function",
      "constant": true
    },
    {
      "inputs": [
        {
          "internalType": "uint256",
          "name": "_transactionProductId",
          "type": "uint256"
        }
      ],
      "name": "getProductTransaction",
      "outputs": [
        {
          "internalType": "string",
          "name": "idTransaction",
          "type": "string"
        },
        {
          "internalType": "uint256",
          "name": "idProduct",
          "type": "uint256"
        },
        {
          "internalType": "string",
          "name": "Name",
          "type": "string"
        },
        {
          "internalType": "uint256",
          "name": "Price",
          "type": "uint256"
        },
        {
          "internalType": "uint256",
          "name": "count",
          "type": "uint256"
        },
        {
          "internalType": "string",
          "name": "NameShop",
          "type": "string"
        },
        {
          "internalType": "uint256",
          "name": "discount",
          "type": "uint256"
        }
      ],
      "stateMutability": "view",
      "type": "function",
      "constant": true
    },
    {
      "inputs": [
        {
          "internalType": "string",
          "name": "_idTransaction",
          "type": "string"
        }
      ],
      "name": "getProductsByTransaction",
      "outputs": [
        {
          "internalType": "uint256[]",
          "name": "matchingProductIds",
          "type": "uint256[]"
        },
        {
          "internalType": "string[]",
          "name": "matchingNames",
          "type": "string[]"
        },
        {
          "internalType": "uint256[]",
          "name": "matchingPrices",
          "type": "uint256[]"
        }
      ],
      "stateMutability": "view",
      "type": "function",
      "constant": true
    },
    {
      "inputs": [],
      "name": "getAllTransactions",
      "outputs": [
        {
          "components": [
            {
              "internalType": "string",
              "name": "customerName",
              "type": "string"
            },
            {
              "internalType": "uint256",
              "name": "deliveryDate",
              "type": "uint256"
            },
            {
              "internalType": "uint256",
              "name": "creationDate",
              "type": "uint256"
            },
            {
              "internalType": "uint256",
              "name": "total",
              "type": "uint256"
            },
            {
              "internalType": "uint256",
              "name": "totalDiscount",
              "type": "uint256"
            },
            {
              "internalType": "uint256",
              "name": "productCount",
              "type": "uint256"
            },
            {
              "internalType": "string",
              "name": "paymentMethod",
              "type": "string"
            },
            {
              "internalType": "uint256",
              "name": "shippingCost",
              "type": "uint256"
            },
            {
              "internalType": "string",
              "name": "deliveryAddress",
              "type": "string"
            }
          ],
          "internalType": "struct Ecommerce.Transaction[]",
          "name": "",
          "type": "tuple[]"
        }
      ],
      "stateMutability": "view",
      "type": "function",
      "constant": true
    }
  ],
  "bytecode": "0x608060405234801561001057600080fd5b506118f9806100206000396000f3fe608060405234801561001057600080fd5b506004361061009e5760003560e01c80636f2f0666116100665780636f2f0666146101485780637acc0b201461015d5780639ace38c214610170578063b77bf60014610183578063d2457cf41461018c57600080fd5b806327506f53146100a357806333ea3dc8146100c15780633ede8d4d146100e957806349092d701461010f57806367665fbb14610126575b600080fd5b6100ab61019f565b6040516100b891906112b7565b60405180910390f35b6100d46100cf36600461139b565b61048f565b6040516100b8999897969594939291906113b4565b6100fc6100f736600461139b565b6106a3565b6040516100b89796959493929190611425565b61011860035481565b6040519081526020016100b8565b610139610134366004611528565b6108a4565b6040516100b8939291906115a0565b61015b610156366004611625565b610bd0565b005b6100fc61016b36600461139b565b610d03565b6100d461017e36600461139b565b610ed5565b61011860025481565b61015b61019a3660046116e8565b6110b3565b6060600060025467ffffffffffffffff8111156101be576101be611485565b60405190808252806020026020018201604052801561023e57816020015b61022b6040518061012001604052806060815260200160008152602001600081526020016000815260200160008152602001600081526020016060815260200160008152602001606081525090565b8152602001906001900390816101dc5790505b50905060005b60025481101561048957600081815260208190526040908190208151610120810190925280548290829061027790611797565b80601f01602080910402602001604051908101604052809291908181526020018280546102a390611797565b80156102f05780601f106102c5576101008083540402835291602001916102f0565b820191906000526020600020905b8154815290600101906020018083116102d357829003601f168201915b50505050508152602001600182015481526020016002820154815260200160038201548152602001600482015481526020016005820154815260200160068201805461033b90611797565b80601f016020809104026020016040519081016040528092919081815260200182805461036790611797565b80156103b45780601f10610389576101008083540402835291602001916103b4565b820191906000526020600020905b81548152906001019060200180831161039757829003601f168201915b50505050508152602001600782015481526020016008820180546103d790611797565b80601f016020809104026020016040519081016040528092919081815260200182805461040390611797565b80156104505780601f1061042557610100808354040283529160200191610450565b820191906000526020600020905b81548152906001019060200180831161043357829003601f168201915b50505050508152505082828151811061046b5761046b6117cc565b60200260200101819052508080610481906117e2565b915050610244565b50919050565b6060600080600080600060606000606060008060008c815260200190815260200160002090508060000181600101548260020154836003015484600401548560050154866006018760070154886008018880546104eb90611797565b80601f016020809104026020016040519081016040528092919081815260200182805461051790611797565b80156105645780601f1061053957610100808354040283529160200191610564565b820191906000526020600020905b81548152906001019060200180831161054757829003601f168201915b5050505050985082805461057790611797565b80601f01602080910402602001604051908101604052809291908181526020018280546105a390611797565b80156105f05780601f106105c5576101008083540402835291602001916105f0565b820191906000526020600020905b8154815290600101906020018083116105d357829003601f168201915b5050505050925080805461060390611797565b80601f016020809104026020016040519081016040528092919081815260200182805461062f90611797565b801561067c5780601f106106515761010080835404028352916020019161067c565b820191906000526020600020905b81548152906001019060200180831161065f57829003601f168201915b50505050509050995099509950995099509950995099509950509193959799909294969850565b6060600060606000806060600080600160008a8152602001908152602001600020905080600001816001015482600201836003015484600401548560050186600601548680546106f290611797565b80601f016020809104026020016040519081016040528092919081815260200182805461071e90611797565b801561076b5780601f106107405761010080835404028352916020019161076b565b820191906000526020600020905b81548152906001019060200180831161074e57829003601f168201915b5050505050965084805461077e90611797565b80601f01602080910402602001604051908101604052809291908181526020018280546107aa90611797565b80156107f75780601f106107cc576101008083540402835291602001916107f7565b820191906000526020600020905b8154815290600101906020018083116107da57829003601f168201915b5050505050945081805461080a90611797565b80601f016020809104026020016040519081016040528092919081815260200182805461083690611797565b80156108835780601f1061085857610100808354040283529160200191610883565b820191906000526020600020905b81548152906001019060200180831161086657829003601f168201915b50505050509150975097509750975097509750975050919395979092949650565b6060806060600080600354905060005b8181101561093b57866040516020016108cd919061180b565b60408051601f1981840301815282825280516020918201206000858152600183529290922091926108ff929101611827565b6040516020818303038152906040528051906020012014156109295782610925816117e2565b9350505b80610933816117e2565b9150506108b4565b508167ffffffffffffffff81111561095557610955611485565b60405190808252806020026020018201604052801561097e578160200160208202803683370190505b5094508167ffffffffffffffff81111561099a5761099a611485565b6040519080825280602002602001820160405280156109cd57816020015b60608152602001906001900390816109b85790505b5093508167ffffffffffffffff8111156109e9576109e9611485565b604051908082528060200260200182016040528015610a12578160200160208202803683370190505b5092506000805b82811015610bc55787604051602001610a32919061180b565b60408051601f198184030181528282528051602091820120600085815260018352929092209192610a64929101611827565b604051602081830303815290604052805190602001201415610bb3576001600082815260200190815260200160002060010154878381518110610aa957610aa96117cc565b602002602001018181525050600160008281526020019081526020016000206002018054610ad690611797565b80601f0160208091040260200160405190810160405280929190818152602001828054610b0290611797565b8015610b4f5780601f10610b2457610100808354040283529160200191610b4f565b820191906000526020600020905b815481529060010190602001808311610b3257829003601f168201915b5050505050868381518110610b6657610b666117cc565b60200260200101819052506001600082815260200190815260200160002060030154858381518110610b9a57610b9a6117cc565b602090810291909101015281610baf816117e2565b9250505b80610bbd816117e2565b915050610a19565b505050509193909250565b6040518061012001604052808a81526020018981526020018881526020018781526020018681526020018581526020018481526020018381526020018281525060008060025481526020019081526020016000206000820151816000019080519060200190610c409291906111c2565b50602082810151600183015560408301516002830155606083015160038301556080830151600483015560a0830151600583015560c08301518051610c8b92600685019201906111c2565b5060e082015160078201556101008201518051610cb29160088401916020909101906111c2565b50506002546040519091507f20249019acac6e99959366f842671611cd943aa8071804678030725f38bc787e90600090a260028054906000610cf3836117e2565b9190505550505050505050505050565b600160205260009081526040902080548190610d1e90611797565b80601f0160208091040260200160405190810160405280929190818152602001828054610d4a90611797565b8015610d975780601f10610d6c57610100808354040283529160200191610d97565b820191906000526020600020905b815481529060010190602001808311610d7a57829003601f168201915b505050505090806001015490806002018054610db290611797565b80601f0160208091040260200160405190810160405280929190818152602001828054610dde90611797565b8015610e2b5780601f10610e0057610100808354040283529160200191610e2b565b820191906000526020600020905b815481529060010190602001808311610e0e57829003601f168201915b505050505090806003015490806004015490806005018054610e4c90611797565b80601f0160208091040260200160405190810160405280929190818152602001828054610e7890611797565b8015610ec55780601f10610e9a57610100808354040283529160200191610ec5565b820191906000526020600020905b815481529060010190602001808311610ea857829003601f168201915b5050505050908060060154905087565b600060208190529081526040902080548190610ef090611797565b80601f0160208091040260200160405190810160405280929190818152602001828054610f1c90611797565b8015610f695780601f10610f3e57610100808354040283529160200191610f69565b820191906000526020600020905b815481529060010190602001808311610f4c57829003601f168201915b505050505090806001015490806002015490806003015490806004015490806005015490806006018054610f9c90611797565b80601f0160208091040260200160405190810160405280929190818152602001828054610fc890611797565b80156110155780601f10610fea57610100808354040283529160200191611015565b820191906000526020600020905b815481529060010190602001808311610ff857829003601f168201915b50505050509080600701549080600801805461103090611797565b80601f016020809104026020016040519081016040528092919081815260200182805461105c90611797565b80156110a95780601f1061107e576101008083540402835291602001916110a9565b820191906000526020600020905b81548152906001019060200180831161108c57829003601f168201915b5050505050905089565b6040518060e001604052808881526020018781526020018681526020018581526020018481526020018381526020018281525060016000600354815260200190815260200160002060008201518160000190805190602001906111179291906111c2565b5060208281015160018301556040830151805161113a92600285019201906111c2565b50606082015160038201556080820151600482015560a0820151805161116a9160058401916020909101906111c2565b5060c091909101516006909101556003546040517f20249019acac6e99959366f842671611cd943aa8071804678030725f38bc787e90600090a2600380549060006111b4836117e2565b919050555050505050505050565b8280546111ce90611797565b90600052602060002090601f0160209004810192826111f05760008555611236565b82601f1061120957805160ff1916838001178555611236565b82800160010185558215611236579182015b8281111561123657825182559160200191906001019061121b565b50611242929150611246565b5090565b5b808211156112425760008155600101611247565b60005b8381101561127657818101518382015260200161125e565b83811115611285576000848401525b50505050565b600081518084526112a381602086016020860161125b565b601f01601f19169290920160200192915050565b60006020808301818452808551808352604092508286019150828160051b87010184880160005b8381101561138d57603f19898403018552815161012081518186526113058287018261128b565b838b0151878c0152898401518a880152606080850151908801526080808501519088015260a0808501519088015260c080850151888303828a0152919350915061134f838261128b565b9250505060e08083015181870152506101008083015192508582038187015250611379818361128b565b9689019694505050908601906001016112de565b509098975050505050505050565b6000602082840312156113ad57600080fd5b5035919050565b60006101208083526113c88184018d61128b565b90508a60208401528960408401528860608401528760808401528660a084015282810360c08401526113fa818761128b565b90508460e0840152828103610100840152611415818561128b565b9c9b505050505050505050505050565b60e08152600061143860e083018a61128b565b8860208401528281036040840152611450818961128b565b905086606084015285608084015282810360a0840152611470818661128b565b9150508260c083015298975050505050505050565b634e487b7160e01b600052604160045260246000fd5b600082601f8301126114ac57600080fd5b813567ffffffffffffffff808211156114c7576114c7611485565b604051601f8301601f19908116603f011681019082821181831017156114ef576114ef611485565b8160405283815286602085880101111561150857600080fd5b836020870160208301376000602085830101528094505050505092915050565b60006020828403121561153a57600080fd5b813567ffffffffffffffff81111561155157600080fd5b61155d8482850161149b565b949350505050565b600081518084526020808501945080840160005b8381101561159557815187529582019590820190600101611579565b509495945050505050565b6060815260006115b36060830186611565565b6020838203818501528186518084528284019150828160051b85010183890160005b8381101561160357601f198784030185526115f183835161128b565b948601949250908501906001016115d5565b505086810360408801526116178189611565565b9a9950505050505050505050565b60008060008060008060008060006101208a8c03121561164457600080fd5b893567ffffffffffffffff8082111561165c57600080fd5b6116688d838e0161149b565b9a5060208c0135995060408c0135985060608c0135975060808c0135965060a08c0135955060c08c01359150808211156116a157600080fd5b6116ad8d838e0161149b565b945060e08c013593506101008c01359150808211156116cb57600080fd5b506116d88c828d0161149b565b9150509295985092959850929598565b600080600080600080600060e0888a03121561170357600080fd5b873567ffffffffffffffff8082111561171b57600080fd5b6117278b838c0161149b565b985060208a0135975060408a013591508082111561174457600080fd5b6117508b838c0161149b565b965060608a0135955060808a0135945060a08a013591508082111561177457600080fd5b506117818a828b0161149b565b92505060c0880135905092959891949750929550565b600181811c908216806117ab57607f821691505b6020821081141561048957634e487b7160e01b600052602260045260246000fd5b634e487b7160e01b600052603260045260246000fd5b600060001982141561180457634e487b7160e01b600052601160045260246000fd5b5060010190565b6000825161181d81846020870161125b565b9190910192915050565b600080835481600182811c91508083168061184357607f831692505b602080841082141561186357634e487b7160e01b86526022600452602486fd5b8180156118775760018114611888576118b5565b60ff198616895284890196506118b5565b60008a81526020902060005b868110156118ad5781548b820152908501908301611894565b505084890196505b50949897505050505050505056fea2646970667358221220a7a4205cc547df67dada64d1743d6c4f66ad7bdfe690998ca7c16e27716b206264736f6c634300080b0033",
  "immutableReferences": {},
  "source": "// SPDX-License-Identifier: MIT\r\npragma solidity ^0.8.0;\r\n\r\ncontract Ecommerce {\r\n    \r\n    struct Product {\r\n        string idTransaction;\r\n        uint idProduct;\r\n        string Name;\r\n        uint Price;\r\n        uint Count;\r\n        string NameShop;\r\n        uint Discount;\r\n    }\r\n    \r\n    struct Transaction {\r\n        string customerName;\r\n        uint deliveryDate;\r\n        uint creationDate;\r\n        uint total;\r\n        uint totalDiscount;\r\n        uint productCount;\r\n        string paymentMethod;\r\n        uint shippingCost;\r\n        string deliveryAddress;\r\n    }\r\n\r\n    mapping(uint => Transaction) public transactions;\r\n    mapping(uint => Product) public products;\r\n    uint public transactionCount;\r\n    uint public transactionProductCount;\r\n\r\n    event TransactionCreated(uint indexed transactionId);\r\n\r\n    function createTransaction(\r\n        string memory _customerName,\r\n        uint _deliveryDate,\r\n        uint _creationDate,\r\n        uint _total,\r\n        uint _totalDiscount,\r\n        uint _productCount,\r\n        string memory _paymentMethod,\r\n        uint _shippingCost,\r\n        string memory _deliveryAddress\r\n    ) public {\r\n        transactions[transactionCount] = Transaction({\r\n            customerName: _customerName,\r\n            deliveryDate: _deliveryDate,\r\n            creationDate: _creationDate,\r\n            total: _total,\r\n            totalDiscount: _totalDiscount,\r\n            productCount: _productCount,\r\n            paymentMethod: _paymentMethod,\r\n            shippingCost: _shippingCost,\r\n            deliveryAddress: _deliveryAddress\r\n        });\r\n        emit TransactionCreated(transactionCount);\r\n        transactionCount++;\r\n    }\r\n\r\n    function createProductTransaction(\r\n        string memory _idTransaction,\r\n        uint _idProduct,\r\n        string memory _nameProduct,\r\n        uint _priceProduct,\r\n        uint _count,\r\n        string memory _nameShop,\r\n        uint _discount\r\n    ) public {\r\n        products[transactionProductCount] = Product({\r\n            idTransaction: _idTransaction,\r\n            idProduct: _idProduct,\r\n            Name: _nameProduct,\r\n            Price: _priceProduct,\r\n            Count: _count,\r\n            NameShop: _nameShop,\r\n            Discount: _discount\r\n        });\r\n        emit TransactionCreated(transactionProductCount);\r\n        transactionProductCount++;\r\n    }\r\n\r\n    function getTransaction(uint _transactionId) public view returns (\r\n        string memory customerName,\r\n        uint deliveryDate,\r\n        uint creationDate,\r\n        uint total,\r\n        uint totalDiscount,\r\n        uint productCount,\r\n        string memory paymentMethod,\r\n        uint shippingCost,\r\n        string memory deliveryAddress\r\n    ) {\r\n        Transaction storage transaction = transactions[_transactionId];\r\n        return (\r\n            transaction.customerName,\r\n            transaction.deliveryDate,\r\n            transaction.creationDate,\r\n            transaction.total,\r\n            transaction.totalDiscount,\r\n            transaction.productCount,\r\n            transaction.paymentMethod,\r\n            transaction.shippingCost,\r\n            transaction.deliveryAddress\r\n        );\r\n    }\r\n\r\n    function getProductTransaction(uint _transactionProductId) public view returns (\r\n        string memory idTransaction,\r\n        uint idProduct,\r\n        string memory Name,\r\n        uint Price,\r\n        uint count,\r\n        string memory NameShop,\r\n        uint discount\r\n    ) {\r\n        Product storage product = products[_transactionProductId];\r\n        return (\r\n            product.idTransaction,\r\n            product.idProduct,\r\n            product.Name,\r\n            product.Price,\r\n            product.Count,\r\n            product.NameShop,\r\n            product.Discount\r\n        );\r\n    }\r\n\r\n    function getProductsByTransaction(string memory _idTransaction) public view returns (\r\n        uint[] memory matchingProductIds,\r\n        string[] memory matchingNames,\r\n        uint[] memory matchingPrices\r\n    ) {\r\n        uint count = 0;\r\n        uint totalProducts = transactionProductCount;\r\n\r\n        // Recorremos todos los productos para encontrar aquellos que coincidan con el idTransaction\r\n        for (uint i = 0; i < totalProducts; i++) {\r\n            if (keccak256(abi.encodePacked(products[i].idTransaction)) == keccak256(abi.encodePacked(_idTransaction))) {\r\n                count++;\r\n            }\r\n        }\r\n\r\n        // Creamos arrays con longitud igual a la cantidad de productos que coinciden\r\n        matchingProductIds = new uint[](count);\r\n        matchingNames = new string[](count);\r\n        matchingPrices = new uint[](count);\r\n\r\n        uint index = 0;\r\n\r\n        // Recorremos nuevamente todos los productos para almacenar los que coinciden\r\n        for (uint j = 0; j < totalProducts; j++) {\r\n            if (keccak256(abi.encodePacked(products[j].idTransaction)) == keccak256(abi.encodePacked(_idTransaction))) {\r\n                matchingProductIds[index] = products[j].idProduct;\r\n                matchingNames[index] = products[j].Name;\r\n                matchingPrices[index] = products[j].Price;\r\n                index++;\r\n            }\r\n        }\r\n\r\n        return (matchingProductIds, matchingNames, matchingPrices);\r\n    }\r\n\r\n    function getAllTransactions() public view returns (Transaction[] memory) {\r\n        Transaction[] memory allTransactions = new Transaction[](transactionCount);\r\n        for (uint i = 0; i < transactionCount; i++) {\r\n            allTransactions[i] = transactions[i];\r\n        }\r\n        return allTransactions;\r\n    }\r\n}",
  "sourcePath": "C:\\Users\\henry\\OneDrive\\Desktop\\10mo Ciclo\\Tesis 2\\Tesis2\\FrontEnd\\react-frontend\\src\\Blockchain\\contracts\\Ecommerce.sol",
  "compiler": {
    "name": "solc",
    "version": "0.8.11+commit.d7f03943.Emscripten.clang"
  },
  "schemaVersion": "3.4.16",
  "updatedAt": "2024-06-02T19:10:40.419Z",
  "networkType": "ethereum",
  "devdoc": {
    "kind": "dev",
    "methods": {},
    "version": 1
  },
  "userdoc": {
    "kind": "user",
    "methods": {},
    "version": 1
  }
}