{
  "contractName": "Ecommerce",
  "abi": [
    {
      "anonymous": false,
      "inputs": [
        {
          "indexed": true,
          "internalType": "uint256",
          "name": "transactionId",
          "type": "uint256"
        }
      ],
      "name": "TransactionCreated",
      "type": "event"
    },
    {
      "inputs": [],
      "name": "transactionCount",
      "outputs": [
        {
          "internalType": "uint256",
          "name": "",
          "type": "uint256"
        }
      ],
      "stateMutability": "view",
      "type": "function",
      "constant": true
    },
    {
      "inputs": [
        {
          "internalType": "uint256",
          "name": "",
          "type": "uint256"
        }
      ],
      "name": "transactions",
      "outputs": [
        {
          "internalType": "string",
          "name": "customerName",
          "type": "string"
        },
        {
          "internalType": "uint256",
          "name": "deliveryDate",
          "type": "uint256"
        },
        {
          "internalType": "uint256",
          "name": "creationDate",
          "type": "uint256"
        },
        {
          "internalType": "uint256",
          "name": "total",
          "type": "uint256"
        },
        {
          "internalType": "uint256",
          "name": "totalDiscount",
          "type": "uint256"
        },
        {
          "internalType": "bool",
          "name": "claim",
          "type": "bool"
        },
        {
          "internalType": "uint256",
          "name": "productCount",
          "type": "uint256"
        },
        {
          "internalType": "string",
          "name": "paymentMethod",
          "type": "string"
        },
        {
          "internalType": "uint256",
          "name": "shippingCost",
          "type": "uint256"
        },
        {
          "internalType": "string",
          "name": "deliveryAddress",
          "type": "string"
        }
      ],
      "stateMutability": "view",
      "type": "function",
      "constant": true
    },
    {
      "inputs": [
        {
          "internalType": "string",
          "name": "_customerName",
          "type": "string"
        },
        {
          "internalType": "uint256",
          "name": "_deliveryDate",
          "type": "uint256"
        },
        {
          "internalType": "uint256",
          "name": "_creationDate",
          "type": "uint256"
        },
        {
          "internalType": "uint256",
          "name": "_total",
          "type": "uint256"
        },
        {
          "internalType": "uint256",
          "name": "_totalDiscount",
          "type": "uint256"
        },
        {
          "internalType": "bool",
          "name": "_claim",
          "type": "bool"
        },
        {
          "internalType": "uint256",
          "name": "_productCount",
          "type": "uint256"
        },
        {
          "internalType": "string",
          "name": "_paymentMethod",
          "type": "string"
        },
        {
          "internalType": "uint256",
          "name": "_shippingCost",
          "type": "uint256"
        },
        {
          "internalType": "string",
          "name": "_deliveryAddress",
          "type": "string"
        }
      ],
      "name": "createTransaction",
      "outputs": [],
      "stateMutability": "nonpayable",
      "type": "function"
    },
    {
      "inputs": [
        {
          "internalType": "uint256",
          "name": "_transactionId",
          "type": "uint256"
        }
      ],
      "name": "getTransaction",
      "outputs": [
        {
          "internalType": "string",
          "name": "customerName",
          "type": "string"
        },
        {
          "internalType": "uint256",
          "name": "deliveryDate",
          "type": "uint256"
        },
        {
          "internalType": "uint256",
          "name": "creationDate",
          "type": "uint256"
        },
        {
          "internalType": "uint256",
          "name": "total",
          "type": "uint256"
        },
        {
          "internalType": "uint256",
          "name": "totalDiscount",
          "type": "uint256"
        },
        {
          "internalType": "bool",
          "name": "claim",
          "type": "bool"
        },
        {
          "internalType": "uint256",
          "name": "productCount",
          "type": "uint256"
        },
        {
          "internalType": "string",
          "name": "paymentMethod",
          "type": "string"
        },
        {
          "internalType": "uint256",
          "name": "shippingCost",
          "type": "uint256"
        },
        {
          "internalType": "string",
          "name": "deliveryAddress",
          "type": "string"
        }
      ],
      "stateMutability": "view",
      "type": "function",
      "constant": true
    },
    {
      "inputs": [],
      "name": "getAllTransactions",
      "outputs": [
        {
          "components": [
            {
              "internalType": "string",
              "name": "customerName",
              "type": "string"
            },
            {
              "internalType": "uint256",
              "name": "deliveryDate",
              "type": "uint256"
            },
            {
              "internalType": "uint256",
              "name": "creationDate",
              "type": "uint256"
            },
            {
              "internalType": "uint256",
              "name": "total",
              "type": "uint256"
            },
            {
              "internalType": "uint256",
              "name": "totalDiscount",
              "type": "uint256"
            },
            {
              "internalType": "bool",
              "name": "claim",
              "type": "bool"
            },
            {
              "internalType": "uint256",
              "name": "productCount",
              "type": "uint256"
            },
            {
              "internalType": "string",
              "name": "paymentMethod",
              "type": "string"
            },
            {
              "internalType": "uint256",
              "name": "shippingCost",
              "type": "uint256"
            },
            {
              "internalType": "string",
              "name": "deliveryAddress",
              "type": "string"
            }
          ],
          "internalType": "struct Ecommerce.Transaction[]",
          "name": "",
          "type": "tuple[]"
        }
      ],
      "stateMutability": "view",
      "type": "function",
      "constant": true
    }
  ],
  "bytecode": "0x608060405234801561001057600080fd5b50610dff806100206000396000f3fe608060405234801561001057600080fd5b50600436106100575760003560e01c806327506f531461005c57806333ea3dc81461007a5780639ace38c2146100a3578063b77bf600146100b6578063e9e5f8d8146100cd575b600080fd5b6100646100e2565b6040516100719190610a43565b60405180910390f35b61008d610088366004610b34565b6103ee565b6040516100719a99989796959493929190610b4d565b61008d6100b1366004610b34565b610617565b6100bf60015481565b604051908152602001610071565b6100e06100db366004610c80565b610808565b005b6060600060015467ffffffffffffffff81111561010157610101610bc8565b60405190808252806020026020018201604052801561018a57816020015b6101776040518061014001604052806060815260200160008152602001600081526020016000815260200160008152602001600015158152602001600081526020016060815260200160008152602001606081525090565b81526020019060019003908161011f5790505b50905060005b6001548110156103e85760008181526020819052604090819020815161014081019092528054829082906101c390610d55565b80601f01602080910402602001604051908101604052809291908181526020018280546101ef90610d55565b801561023c5780601f106102115761010080835404028352916020019161023c565b820191906000526020600020905b81548152906001019060200180831161021f57829003601f168201915b505050918352505060018201546020820152600282015460408201526003820154606082015260048201546080820152600582015460ff16151560a0820152600682015460c082015260078201805460e09092019161029a90610d55565b80601f01602080910402602001604051908101604052809291908181526020018280546102c690610d55565b80156103135780601f106102e857610100808354040283529160200191610313565b820191906000526020600020905b8154815290600101906020018083116102f657829003601f168201915b505050505081526020016008820154815260200160098201805461033690610d55565b80601f016020809104026020016040519081016040528092919081815260200182805461036290610d55565b80156103af5780601f10610384576101008083540402835291602001916103af565b820191906000526020600020905b81548152906001019060200180831161039257829003601f168201915b5050505050815250508282815181106103ca576103ca610d8a565b602002602001018190525080806103e090610da0565b915050610190565b50919050565b606060008060008060008060606000606060008060008d815260200190815260200160002090508060000181600101548260020154836003015484600401548560050160009054906101000a900460ff1686600601548760070188600801548960090189805461045d90610d55565b80601f016020809104026020016040519081016040528092919081815260200182805461048990610d55565b80156104d65780601f106104ab576101008083540402835291602001916104d6565b820191906000526020600020905b8154815290600101906020018083116104b957829003601f168201915b505050505099508280546104e990610d55565b80601f016020809104026020016040519081016040528092919081815260200182805461051590610d55565b80156105625780601f1061053757610100808354040283529160200191610562565b820191906000526020600020905b81548152906001019060200180831161054557829003601f168201915b5050505050925080805461057590610d55565b80601f01602080910402602001604051908101604052809291908181526020018280546105a190610d55565b80156105ee5780601f106105c3576101008083540402835291602001916105ee565b820191906000526020600020905b8154815290600101906020018083116105d157829003601f168201915b505050505090509a509a509a509a509a509a509a509a509a509a50509193959799509193959799565b60006020819052908152604090208054819061063290610d55565b80601f016020809104026020016040519081016040528092919081815260200182805461065e90610d55565b80156106ab5780601f10610680576101008083540402835291602001916106ab565b820191906000526020600020905b81548152906001019060200180831161068e57829003601f168201915b5050505050908060010154908060020154908060030154908060040154908060050160009054906101000a900460ff16908060060154908060070180546106f190610d55565b80601f016020809104026020016040519081016040528092919081815260200182805461071d90610d55565b801561076a5780601f1061073f5761010080835404028352916020019161076a565b820191906000526020600020905b81548152906001019060200180831161074d57829003601f168201915b50505050509080600801549080600901805461078590610d55565b80601f01602080910402602001604051908101604052809291908181526020018280546107b190610d55565b80156107fe5780601f106107d3576101008083540402835291602001916107fe565b820191906000526020600020905b8154815290600101906020018083116107e157829003601f168201915b505050505090508a565b6040518061014001604052808b81526020018a81526020018981526020018881526020018781526020018615158152602001858152602001848152602001838152602001828152506000806001548152602001908152602001600020600082015181600001908051906020019061088092919061095d565b50602082810151600183015560408301516002830155606083015160038301556080830151600483015560a083015160058301805460ff191691151591909117905560c0830151600683015560e083015180516108e3926007850192019061095d565b506101008201516008820155610120820151805161090b91600984019160209091019061095d565b50506001546040519091507f20249019acac6e99959366f842671611cd943aa8071804678030725f38bc787e90600090a26001805490600061094c83610da0565b919050555050505050505050505050565b82805461096990610d55565b90600052602060002090601f01602090048101928261098b57600085556109d1565b82601f106109a457805160ff19168380011785556109d1565b828001600101855582156109d1579182015b828111156109d15782518255916020019190600101906109b6565b506109dd9291506109e1565b5090565b5b808211156109dd57600081556001016109e2565b6000815180845260005b81811015610a1c57602081850181015186830182015201610a00565b81811115610a2e576000602083870101525b50601f01601f19169290920160200192915050565b60006020808301818452808551808352604092508286019150828160051b87010184880160005b83811015610b2657603f1989840301855281516101408151818652610a91828701826109f6565b8a840151878c0152898401518a880152606080850151908801526080808501519088015260a08085015115159088015260c0808501519088015260e080850151888303828a01529193509150610ae783826109f6565b925050506101008083015181870152506101208083015192508582038187015250610b1281836109f6565b968901969450505090860190600101610a6a565b509098975050505050505050565b600060208284031215610b4657600080fd5b5035919050565b6000610140808352610b618184018e6109f6565b90508b60208401528a604084015289606084015288608084015287151560a08401528660c084015282810360e0840152610b9b81876109f6565b905084610100840152828103610120840152610bb781856109f6565b9d9c50505050505050505050505050565b634e487b7160e01b600052604160045260246000fd5b600082601f830112610bef57600080fd5b813567ffffffffffffffff80821115610c0a57610c0a610bc8565b604051601f8301601f19908116603f01168101908282118183101715610c3257610c32610bc8565b81604052838152866020858801011115610c4b57600080fd5b836020870160208301376000602085830101528094505050505092915050565b80358015158114610c7b57600080fd5b919050565b6000806000806000806000806000806101408b8d031215610ca057600080fd5b8a3567ffffffffffffffff80821115610cb857600080fd5b610cc48e838f01610bde565b9b5060208d01359a5060408d0135995060608d0135985060808d01359750610cee60a08e01610c6b565b965060c08d0135955060e08d0135915080821115610d0b57600080fd5b610d178e838f01610bde565b94506101008d013593506101208d0135915080821115610d3657600080fd5b50610d438d828e01610bde565b9150509295989b9194979a5092959850565b600181811c90821680610d6957607f821691505b602082108114156103e857634e487b7160e01b600052602260045260246000fd5b634e487b7160e01b600052603260045260246000fd5b6000600019821415610dc257634e487b7160e01b600052601160045260246000fd5b506001019056fea2646970667358221220e0788bda9dc2d50ed8f4efd91bdb0a8a7249bf6b405c69f10a07bd50b560b25864736f6c634300080b0033",
  "immutableReferences": {},
  "source": "// SPDX-License-Identifier: MIT\r\npragma solidity ^0.8.0;\r\n\r\ncontract Ecommerce {\r\n    struct Transaction {\r\n        string customerName;\r\n        uint deliveryDate;\r\n        uint creationDate;\r\n        uint total;\r\n        uint totalDiscount;\r\n        bool claim;\r\n        uint productCount;\r\n        string paymentMethod;\r\n        uint shippingCost;\r\n        string deliveryAddress;\r\n    }\r\n\r\n    mapping(uint => Transaction) public transactions;\r\n    uint public transactionCount;\r\n\r\n    event TransactionCreated(uint indexed transactionId);\r\n\r\n    function createTransaction(\r\n        string memory _customerName,\r\n        uint _deliveryDate,\r\n        uint _creationDate,\r\n        uint _total,\r\n        uint _totalDiscount,\r\n        bool _claim,\r\n        uint _productCount,\r\n        string memory _paymentMethod,\r\n        uint _shippingCost,\r\n        string memory _deliveryAddress\r\n    ) public {\r\n        transactions[transactionCount] = Transaction({\r\n            customerName: _customerName,\r\n            deliveryDate: _deliveryDate,\r\n            creationDate: _creationDate,\r\n            total: _total,\r\n            totalDiscount: _totalDiscount,\r\n            claim: _claim,\r\n            productCount: _productCount,\r\n            paymentMethod: _paymentMethod,\r\n            shippingCost: _shippingCost,\r\n            deliveryAddress: _deliveryAddress\r\n        });\r\n        emit TransactionCreated(transactionCount);\r\n        transactionCount++;\r\n    }\r\n\r\n    function getTransaction(uint _transactionId) public view returns (\r\n        string memory customerName,\r\n        uint deliveryDate,\r\n        uint creationDate,\r\n        uint total,\r\n        uint totalDiscount,\r\n        bool claim,\r\n        uint productCount,\r\n        string memory paymentMethod,\r\n        uint shippingCost,\r\n        string memory deliveryAddress\r\n    ) {\r\n        Transaction storage transaction = transactions[_transactionId];\r\n        return (\r\n            transaction.customerName,\r\n            transaction.deliveryDate,\r\n            transaction.creationDate,\r\n            transaction.total,\r\n            transaction.totalDiscount,\r\n            transaction.claim,\r\n            transaction.productCount,\r\n            transaction.paymentMethod,\r\n            transaction.shippingCost,\r\n            transaction.deliveryAddress\r\n        );\r\n    }\r\n\r\n    function getAllTransactions() public view returns (Transaction[] memory) {\r\n        Transaction[] memory allTransactions = new Transaction[](transactionCount);\r\n        for (uint i = 0; i < transactionCount; i++) {\r\n            allTransactions[i] = transactions[i];\r\n        }\r\n        return allTransactions;\r\n    }\r\n}",
  "sourcePath": "C:\\Users\\henry\\OneDrive\\Desktop\\10mo Ciclo\\Tesis 2\\Tesis2\\FrontEnd\\react-frontend\\src\\Blockchain\\contracts\\Ecommerce.sol",
  "compiler": {
    "name": "solc",
    "version": "0.8.11+commit.d7f03943.Emscripten.clang"
  },
  "schemaVersion": "3.4.16",
  "updatedAt": "2024-04-19T00:18:37.260Z",
  "networkType": "ethereum",
  "devdoc": {
    "kind": "dev",
    "methods": {},
    "version": 1
  },
  "userdoc": {
    "kind": "user",
    "methods": {},
    "version": 1
  }
}