{
  "contractName": "Ecommerce",
  "abi": [
    {
      "anonymous": false,
      "inputs": [
        {
          "indexed": true,
          "internalType": "uint256",
          "name": "transactionId",
          "type": "uint256"
        }
      ],
      "name": "TransactionCreated",
      "type": "event"
    },
    {
      "inputs": [
        {
          "internalType": "uint256",
          "name": "",
          "type": "uint256"
        }
      ],
      "name": "products",
      "outputs": [
        {
          "internalType": "string",
          "name": "idTransaction",
          "type": "string"
        },
        {
          "internalType": "uint256",
          "name": "positionTransaction",
          "type": "uint256"
        },
        {
          "internalType": "uint256",
          "name": "idProduct",
          "type": "uint256"
        },
        {
          "internalType": "string",
          "name": "Name",
          "type": "string"
        },
        {
          "internalType": "uint256",
          "name": "Price",
          "type": "uint256"
        },
        {
          "internalType": "uint256",
          "name": "Count",
          "type": "uint256"
        },
        {
          "internalType": "string",
          "name": "NameShop",
          "type": "string"
        },
        {
          "internalType": "uint256",
          "name": "Discount",
          "type": "uint256"
        }
      ],
      "stateMutability": "view",
      "type": "function",
      "constant": true
    },
    {
      "inputs": [],
      "name": "transactionCount",
      "outputs": [
        {
          "internalType": "uint256",
          "name": "",
          "type": "uint256"
        }
      ],
      "stateMutability": "view",
      "type": "function",
      "constant": true
    },
    {
      "inputs": [],
      "name": "transactionProductCount",
      "outputs": [
        {
          "internalType": "uint256",
          "name": "",
          "type": "uint256"
        }
      ],
      "stateMutability": "view",
      "type": "function",
      "constant": true
    },
    {
      "inputs": [
        {
          "internalType": "uint256",
          "name": "",
          "type": "uint256"
        }
      ],
      "name": "transactions",
      "outputs": [
        {
          "internalType": "string",
          "name": "customerName",
          "type": "string"
        },
        {
          "internalType": "uint256",
          "name": "deliveryDate",
          "type": "uint256"
        },
        {
          "internalType": "uint256",
          "name": "creationDate",
          "type": "uint256"
        },
        {
          "internalType": "uint256",
          "name": "total",
          "type": "uint256"
        },
        {
          "internalType": "uint256",
          "name": "totalDiscount",
          "type": "uint256"
        },
        {
          "internalType": "uint256",
          "name": "productCount",
          "type": "uint256"
        },
        {
          "internalType": "string",
          "name": "paymentMethod",
          "type": "string"
        },
        {
          "internalType": "uint256",
          "name": "shippingCost",
          "type": "uint256"
        },
        {
          "internalType": "string",
          "name": "deliveryAddress",
          "type": "string"
        },
        {
          "internalType": "uint256",
          "name": "posicion",
          "type": "uint256"
        }
      ],
      "stateMutability": "view",
      "type": "function",
      "constant": true
    },
    {
      "inputs": [
        {
          "internalType": "string",
          "name": "_customerName",
          "type": "string"
        },
        {
          "internalType": "uint256",
          "name": "_deliveryDate",
          "type": "uint256"
        },
        {
          "internalType": "uint256",
          "name": "_creationDate",
          "type": "uint256"
        },
        {
          "internalType": "uint256",
          "name": "_total",
          "type": "uint256"
        },
        {
          "internalType": "uint256",
          "name": "_totalDiscount",
          "type": "uint256"
        },
        {
          "internalType": "uint256",
          "name": "_productCount",
          "type": "uint256"
        },
        {
          "internalType": "string",
          "name": "_paymentMethod",
          "type": "string"
        },
        {
          "internalType": "uint256",
          "name": "_shippingCost",
          "type": "uint256"
        },
        {
          "internalType": "string",
          "name": "_deliveryAddress",
          "type": "string"
        }
      ],
      "name": "createTransaction",
      "outputs": [],
      "stateMutability": "nonpayable",
      "type": "function"
    },
    {
      "inputs": [
        {
          "internalType": "string",
          "name": "_idTransaction",
          "type": "string"
        },
        {
          "internalType": "uint256",
          "name": "_idProduct",
          "type": "uint256"
        },
        {
          "internalType": "string",
          "name": "_nameProduct",
          "type": "string"
        },
        {
          "internalType": "uint256",
          "name": "_priceProduct",
          "type": "uint256"
        },
        {
          "internalType": "uint256",
          "name": "_count",
          "type": "uint256"
        },
        {
          "internalType": "string",
          "name": "_nameShop",
          "type": "string"
        },
        {
          "internalType": "uint256",
          "name": "_discount",
          "type": "uint256"
        },
        {
          "internalType": "uint256",
          "name": "positionTransaction",
          "type": "uint256"
        }
      ],
      "name": "createProductTransaction",
      "outputs": [],
      "stateMutability": "nonpayable",
      "type": "function"
    },
    {
      "inputs": [],
      "name": "getLastTransactionPosition",
      "outputs": [
        {
          "internalType": "uint256",
          "name": "",
          "type": "uint256"
        }
      ],
      "stateMutability": "view",
      "type": "function",
      "constant": true
    },
    {
      "inputs": [
        {
          "internalType": "uint256",
          "name": "_transactionId",
          "type": "uint256"
        }
      ],
      "name": "getTransaction",
      "outputs": [
        {
          "internalType": "string",
          "name": "customerName",
          "type": "string"
        },
        {
          "internalType": "uint256",
          "name": "deliveryDate",
          "type": "uint256"
        },
        {
          "internalType": "uint256",
          "name": "creationDate",
          "type": "uint256"
        },
        {
          "internalType": "uint256",
          "name": "total",
          "type": "uint256"
        },
        {
          "internalType": "uint256",
          "name": "totalDiscount",
          "type": "uint256"
        },
        {
          "internalType": "uint256",
          "name": "productCount",
          "type": "uint256"
        },
        {
          "internalType": "string",
          "name": "paymentMethod",
          "type": "string"
        },
        {
          "internalType": "uint256",
          "name": "shippingCost",
          "type": "uint256"
        },
        {
          "internalType": "string",
          "name": "deliveryAddress",
          "type": "string"
        },
        {
          "internalType": "uint256",
          "name": "posicionTransacion",
          "type": "uint256"
        }
      ],
      "stateMutability": "view",
      "type": "function",
      "constant": true
    },
    {
      "inputs": [
        {
          "internalType": "uint256",
          "name": "_transactionProductId",
          "type": "uint256"
        }
      ],
      "name": "getProductTransaction",
      "outputs": [
        {
          "internalType": "string",
          "name": "idTransaction",
          "type": "string"
        },
        {
          "internalType": "uint256",
          "name": "posicionTransaction",
          "type": "uint256"
        },
        {
          "internalType": "uint256",
          "name": "idProduct",
          "type": "uint256"
        },
        {
          "internalType": "string",
          "name": "Name",
          "type": "string"
        },
        {
          "internalType": "uint256",
          "name": "Price",
          "type": "uint256"
        },
        {
          "internalType": "uint256",
          "name": "count",
          "type": "uint256"
        },
        {
          "internalType": "string",
          "name": "NameShop",
          "type": "string"
        },
        {
          "internalType": "uint256",
          "name": "discount",
          "type": "uint256"
        }
      ],
      "stateMutability": "view",
      "type": "function",
      "constant": true
    },
    {
      "inputs": [
        {
          "internalType": "string",
          "name": "_idTransaction",
          "type": "string"
        }
      ],
      "name": "getProductsByTransaction",
      "outputs": [
        {
          "internalType": "uint256[]",
          "name": "matchingProductIds",
          "type": "uint256[]"
        },
        {
          "internalType": "string[]",
          "name": "matchingNames",
          "type": "string[]"
        },
        {
          "internalType": "uint256[]",
          "name": "matchingPrices",
          "type": "uint256[]"
        }
      ],
      "stateMutability": "view",
      "type": "function",
      "constant": true
    },
    {
      "inputs": [],
      "name": "getAllTransactions",
      "outputs": [
        {
          "components": [
            {
              "internalType": "string",
              "name": "customerName",
              "type": "string"
            },
            {
              "internalType": "uint256",
              "name": "deliveryDate",
              "type": "uint256"
            },
            {
              "internalType": "uint256",
              "name": "creationDate",
              "type": "uint256"
            },
            {
              "internalType": "uint256",
              "name": "total",
              "type": "uint256"
            },
            {
              "internalType": "uint256",
              "name": "totalDiscount",
              "type": "uint256"
            },
            {
              "internalType": "uint256",
              "name": "productCount",
              "type": "uint256"
            },
            {
              "internalType": "string",
              "name": "paymentMethod",
              "type": "string"
            },
            {
              "internalType": "uint256",
              "name": "shippingCost",
              "type": "uint256"
            },
            {
              "internalType": "string",
              "name": "deliveryAddress",
              "type": "string"
            },
            {
              "internalType": "uint256",
              "name": "posicion",
              "type": "uint256"
            }
          ],
          "internalType": "struct Ecommerce.Transaction[]",
          "name": "",
          "type": "tuple[]"
        }
      ],
      "stateMutability": "view",
      "type": "function",
      "constant": true
    }
  ],
  "bytecode": "0x608060405234801561001057600080fd5b50611a3a806100206000396000f3fe608060405234801561001057600080fd5b50600436106100a95760003560e01c806367665fbb1161007157806367665fbb146101375780636f2f0666146101595780637acc0b201461016e5780639ace38c214610181578063b77bf60014610194578063f1d682151461019d57600080fd5b80631ec3244c146100ae57806327506f53146100c957806333ea3dc8146100de5780633ede8d4d1461010757806349092d701461012e575b600080fd5b6100b66101b0565b6040519081526020015b60405180910390f35b6100d1610230565b6040516100c09190611398565b6100f16100ec366004611488565b610531565b6040516100c09a999897969594939291906114a1565b61011a610115366004611488565b61074d565b6040516100c098979695949392919061151b565b6100b660035481565b61014a610145366004611628565b610956565b6040516100c0939291906116a0565b61016c610167366004611725565b610c7f565b005b61011a61017c366004611488565b610dc6565b6100f161018f366004611488565b610f9e565b6100b660025481565b61016c6101ab3660046117e8565b611182565b600080600254116102075760405162461bcd60e51b815260206004820152601d60248201527f4e6f20686179207472616e73616363696f6e657320637265616461732e000000604482015260640160405180910390fd5b600080600160025461021991906118b7565b815260200190815260200160002060090154905090565b6060600060025467ffffffffffffffff81111561024f5761024f611585565b6040519080825280602002602001820160405280156102d657816020015b6102c3604051806101400160405280606081526020016000815260200160008152602001600081526020016000815260200160008152602001606081526020016000815260200160608152602001600081525090565b81526020019060019003908161026d5790505b50905060005b60025481101561052b57600081815260208190526040908190208151610140810190925280548290829061030f906118ce565b80601f016020809104026020016040519081016040528092919081815260200182805461033b906118ce565b80156103885780601f1061035d57610100808354040283529160200191610388565b820191906000526020600020905b81548152906001019060200180831161036b57829003601f168201915b5050505050815260200160018201548152602001600282015481526020016003820154815260200160048201548152602001600582015481526020016006820180546103d3906118ce565b80601f01602080910402602001604051908101604052809291908181526020018280546103ff906118ce565b801561044c5780601f106104215761010080835404028352916020019161044c565b820191906000526020600020905b81548152906001019060200180831161042f57829003601f168201915b505050505081526020016007820154815260200160088201805461046f906118ce565b80601f016020809104026020016040519081016040528092919081815260200182805461049b906118ce565b80156104e85780601f106104bd576101008083540402835291602001916104e8565b820191906000526020600020905b8154815290600101906020018083116104cb57829003601f168201915b5050505050815260200160098201548152505082828151811061050d5761050d611903565b6020026020010181905250808061052390611919565b9150506102dc565b50919050565b606060008060008060006060600060606000806000808d815260200190815260200160002090508060000181600101548260020154836003015484600401548560050154866006018760070154886008018960090154898054610593906118ce565b80601f01602080910402602001604051908101604052809291908181526020018280546105bf906118ce565b801561060c5780601f106105e15761010080835404028352916020019161060c565b820191906000526020600020905b8154815290600101906020018083116105ef57829003601f168201915b5050505050995083805461061f906118ce565b80601f016020809104026020016040519081016040528092919081815260200182805461064b906118ce565b80156106985780601f1061066d57610100808354040283529160200191610698565b820191906000526020600020905b81548152906001019060200180831161067b57829003601f168201915b505050505093508180546106ab906118ce565b80601f01602080910402602001604051908101604052809291908181526020018280546106d7906118ce565b80156107245780601f106106f957610100808354040283529160200191610724565b820191906000526020600020905b81548152906001019060200180831161070757829003601f168201915b505050505091509a509a509a509a509a509a509a509a509a509a50509193959799509193959799565b606060008060606000806060600080600160008b81526020019081526020016000209050806000018160010154826002015483600301846004015485600501548660060187600701548780546107a2906118ce565b80601f01602080910402602001604051908101604052809291908181526020018280546107ce906118ce565b801561081b5780601f106107f05761010080835404028352916020019161081b565b820191906000526020600020905b8154815290600101906020018083116107fe57829003601f168201915b5050505050975084805461082e906118ce565b80601f016020809104026020016040519081016040528092919081815260200182805461085a906118ce565b80156108a75780601f1061087c576101008083540402835291602001916108a7565b820191906000526020600020905b81548152906001019060200180831161088a57829003601f168201915b505050505094508180546108ba906118ce565b80601f01602080910402602001604051908101604052809291908181526020018280546108e6906118ce565b80156109335780601f1061090857610100808354040283529160200191610933565b820191906000526020600020905b81548152906001019060200180831161091657829003601f168201915b505050505091509850985098509850985098509850985050919395975091939597565b6060806060600080600354905060005b818110156109ed578660405160200161097f9190611934565b60408051601f1981840301815282825280516020918201206000858152600183529290922091926109b1929101611950565b6040516020818303038152906040528051906020012014156109db57826109d781611919565b9350505b806109e581611919565b915050610966565b508167ffffffffffffffff811115610a0757610a07611585565b604051908082528060200260200182016040528015610a30578160200160208202803683370190505b5094508167ffffffffffffffff811115610a4c57610a4c611585565b604051908082528060200260200182016040528015610a7f57816020015b6060815260200190600190039081610a6a5790505b5093508167ffffffffffffffff811115610a9b57610a9b611585565b604051908082528060200260200182016040528015610ac4578160200160208202803683370190505b5092506000805b82811015610c745787604051602001610ae49190611934565b60408051601f198184030181528282528051602091820120600085815260018352929092209192610b16929101611950565b604051602081830303815290604052805190602001201415610c62576000818152600160205260409020600201548751889084908110610b5857610b58611903565b602002602001018181525050600160008281526020019081526020016000206003018054610b85906118ce565b80601f0160208091040260200160405190810160405280929190818152602001828054610bb1906118ce565b8015610bfe5780601f10610bd357610100808354040283529160200191610bfe565b820191906000526020600020905b815481529060010190602001808311610be157829003601f168201915b5050505050868381518110610c1557610c15611903565b60200260200101819052506001600082815260200190815260200160002060040154858381518110610c4957610c49611903565b602090810291909101015281610c5e81611919565b9250505b80610c6c81611919565b915050610acb565b505050509193909250565b6040518061014001604052808a81526020018981526020018881526020018781526020018681526020018581526020018481526020018381526020018281526020016002546001610cd091906119ec565b9052600254600090815260208181526040909120825180519192610cf9928492909101906112a3565b50602082810151600183015560408301516002830155606083015160038301556080830151600483015560a0830151600583015560c08301518051610d4492600685019201906112a3565b5060e082015160078201556101008201518051610d6b9160088401916020909101906112a3565b5061012091909101516009909101556002546040517f20249019acac6e99959366f842671611cd943aa8071804678030725f38bc787e90600090a260028054906000610db683611919565b9190505550505050505050505050565b600160205260009081526040902080548190610de1906118ce565b80601f0160208091040260200160405190810160405280929190818152602001828054610e0d906118ce565b8015610e5a5780601f10610e2f57610100808354040283529160200191610e5a565b820191906000526020600020905b815481529060010190602001808311610e3d57829003601f168201915b505050505090806001015490806002015490806003018054610e7b906118ce565b80601f0160208091040260200160405190810160405280929190818152602001828054610ea7906118ce565b8015610ef45780601f10610ec957610100808354040283529160200191610ef4565b820191906000526020600020905b815481529060010190602001808311610ed757829003601f168201915b505050505090806004015490806005015490806006018054610f15906118ce565b80601f0160208091040260200160405190810160405280929190818152602001828054610f41906118ce565b8015610f8e5780601f10610f6357610100808354040283529160200191610f8e565b820191906000526020600020905b815481529060010190602001808311610f7157829003601f168201915b5050505050908060070154905088565b600060208190529081526040902080548190610fb9906118ce565b80601f0160208091040260200160405190810160405280929190818152602001828054610fe5906118ce565b80156110325780601f1061100757610100808354040283529160200191611032565b820191906000526020600020905b81548152906001019060200180831161101557829003601f168201915b505050505090806001015490806002015490806003015490806004015490806005015490806006018054611065906118ce565b80601f0160208091040260200160405190810160405280929190818152602001828054611091906118ce565b80156110de5780601f106110b3576101008083540402835291602001916110de565b820191906000526020600020905b8154815290600101906020018083116110c157829003601f168201915b5050505050908060070154908060080180546110f9906118ce565b80601f0160208091040260200160405190810160405280929190818152602001828054611125906118ce565b80156111725780601f1061114757610100808354040283529160200191611172565b820191906000526020600020905b81548152906001019060200180831161115557829003601f168201915b505050505090806009015490508a565b6040518061010001604052808981526020018281526020018881526020018781526020018681526020018581526020018481526020018381525060016000600354815260200190815260200160002060008201518160000190805190602001906111ed9291906112a3565b506020828101516001830155604083015160028301556060830151805161121a92600385019201906112a3565b506080820151600482015560a0820151600582015560c0820151805161124a9160068401916020909101906112a3565b5060e091909101516007909101556003546040517f20249019acac6e99959366f842671611cd943aa8071804678030725f38bc787e90600090a26003805490600061129483611919565b91905055505050505050505050565b8280546112af906118ce565b90600052602060002090601f0160209004810192826112d15760008555611317565b82601f106112ea57805160ff1916838001178555611317565b82800160010185558215611317579182015b828111156113175782518255916020019190600101906112fc565b50611323929150611327565b5090565b5b808211156113235760008155600101611328565b60005b8381101561135757818101518382015260200161133f565b83811115611366576000848401525b50505050565b6000815180845261138481602086016020860161133c565b601f01601f19169290920160200192915050565b60006020808301818452808551808352604092508286019150828160051b87010184880160005b8381101561147a57603f19898403018552815161014081518186526113e68287018261136c565b838b0151878c0152898401518a880152606080850151908801526080808501519088015260a0808501519088015260c080850151888303828a01529193509150611430838261136c565b9250505060e08083015181870152506101008083015186830382880152611457838261136c565b6101209485015197909401969096525050948701949250908601906001016113bf565b509098975050505050505050565b60006020828403121561149a57600080fd5b5035919050565b60006101408083526114b58184018e61136c565b90508b60208401528a60408401528960608401528860808401528760a084015282810360c08401526114e7818861136c565b90508560e0840152828103610100840152611502818661136c565b915050826101208301529b9a5050505050505050505050565b600061010080835261152f8184018c61136c565b9050896020840152886040840152828103606084015261154f818961136c565b90508660808401528560a084015282810360c084015261156f818661136c565b9150508260e08301529998505050505050505050565b634e487b7160e01b600052604160045260246000fd5b600082601f8301126115ac57600080fd5b813567ffffffffffffffff808211156115c7576115c7611585565b604051601f8301601f19908116603f011681019082821181831017156115ef576115ef611585565b8160405283815286602085880101111561160857600080fd5b836020870160208301376000602085830101528094505050505092915050565b60006020828403121561163a57600080fd5b813567ffffffffffffffff81111561165157600080fd5b61165d8482850161159b565b949350505050565b600081518084526020808501945080840160005b8381101561169557815187529582019590820190600101611679565b509495945050505050565b6060815260006116b36060830186611665565b6020838203818501528186518084528284019150828160051b85010183890160005b8381101561170357601f198784030185526116f183835161136c565b948601949250908501906001016116d5565b505086810360408801526117178189611665565b9a9950505050505050505050565b60008060008060008060008060006101208a8c03121561174457600080fd5b893567ffffffffffffffff8082111561175c57600080fd5b6117688d838e0161159b565b9a5060208c0135995060408c0135985060608c0135975060808c0135965060a08c0135955060c08c01359150808211156117a157600080fd5b6117ad8d838e0161159b565b945060e08c013593506101008c01359150808211156117cb57600080fd5b506117d88c828d0161159b565b9150509295985092959850929598565b600080600080600080600080610100898b03121561180557600080fd5b883567ffffffffffffffff8082111561181d57600080fd5b6118298c838d0161159b565b995060208b0135985060408b013591508082111561184657600080fd5b6118528c838d0161159b565b975060608b0135965060808b0135955060a08b013591508082111561187657600080fd5b506118838b828c0161159b565b93505060c0890135915060e089013590509295985092959890939650565b634e487b7160e01b600052601160045260246000fd5b6000828210156118c9576118c96118a1565b500390565b600181811c908216806118e257607f821691505b6020821081141561052b57634e487b7160e01b600052602260045260246000fd5b634e487b7160e01b600052603260045260246000fd5b600060001982141561192d5761192d6118a1565b5060010190565b6000825161194681846020870161133c565b9190910192915050565b600080835481600182811c91508083168061196c57607f831692505b602080841082141561198c57634e487b7160e01b86526022600452602486fd5b8180156119a057600181146119b1576119de565b60ff198616895284890196506119de565b60008a81526020902060005b868110156119d65781548b8201529085019083016119bd565b505084890196505b509498975050505050505050565b600082198211156119ff576119ff6118a1565b50019056fea26469706673582212208896916d4ef066ca3690d470e6ea861572379bf91ef83945afc92bb42ec821dc64736f6c634300080b0033",
  "immutableReferences": {},
  "source": "// SPDX-License-Identifier: MIT\r\npragma solidity ^0.8.0;\r\n\r\ncontract Ecommerce {\r\n    \r\n    struct Product {\r\n        string idTransaction;\r\n        uint positionTransaction;\r\n        uint idProduct;\r\n        string Name;\r\n        uint Price;\r\n        uint Count;\r\n        string NameShop;\r\n        uint Discount;\r\n    }\r\n    \r\n    struct Transaction {\r\n        string customerName;\r\n        uint deliveryDate;\r\n        uint creationDate;\r\n        uint total;\r\n        uint totalDiscount;\r\n        uint productCount;\r\n        string paymentMethod;\r\n        uint shippingCost;\r\n        string deliveryAddress;\r\n        uint posicion;\r\n    }\r\n\r\n    mapping(uint => Transaction) public transactions;\r\n    mapping(uint => Product) public products;\r\n    uint public transactionCount;\r\n    uint public transactionProductCount;\r\n\r\n    event TransactionCreated(uint indexed transactionId);\r\n\r\n    function createTransaction(\r\n        string memory _customerName,\r\n        uint _deliveryDate,\r\n        uint _creationDate,\r\n        uint _total,\r\n        uint _totalDiscount,\r\n        uint _productCount,\r\n        string memory _paymentMethod,\r\n        uint _shippingCost,\r\n        string memory _deliveryAddress\r\n    ) public {\r\n        transactions[transactionCount] = Transaction({\r\n            customerName: _customerName,\r\n            deliveryDate: _deliveryDate,\r\n            creationDate: _creationDate,\r\n            total: _total,\r\n            totalDiscount: _totalDiscount,\r\n            productCount: _productCount,\r\n            paymentMethod: _paymentMethod,\r\n            shippingCost: _shippingCost,\r\n            deliveryAddress: _deliveryAddress,\r\n            posicion: transactionCount + 1 \r\n        });\r\n        emit TransactionCreated(transactionCount);\r\n        transactionCount++;\r\n    }\r\n\r\n    function createProductTransaction(\r\n        string memory _idTransaction,\r\n        uint _idProduct,\r\n        string memory _nameProduct,\r\n        uint _priceProduct,\r\n        uint _count,\r\n        string memory _nameShop,\r\n        uint _discount,\r\n        uint positionTransaction\r\n    ) public {\r\n        products[transactionProductCount] = Product({\r\n            idTransaction: _idTransaction,\r\n            positionTransaction: positionTransaction,\r\n            idProduct: _idProduct,\r\n            Name: _nameProduct,\r\n            Price: _priceProduct,\r\n            Count: _count,\r\n            NameShop: _nameShop,\r\n            Discount: _discount\r\n        });\r\n        emit TransactionCreated(transactionProductCount);\r\n        transactionProductCount++;\r\n    }\r\n\r\n    function getLastTransactionPosition() public view returns (uint) {\r\n        // Verificamos que haya al menos una transaccin creada\r\n        require(transactionCount > 0, \"No hay transacciones creadas.\");\r\n    \r\n        // Retornamos la posicion de la ltima transaccin\r\n        return transactions[transactionCount - 1].posicion;\r\n    }\r\n\r\n    function getTransaction(uint _transactionId) public view returns (\r\n        string memory customerName,\r\n        uint deliveryDate,\r\n        uint creationDate,\r\n        uint total,\r\n        uint totalDiscount,\r\n        uint productCount,\r\n        string memory paymentMethod,\r\n        uint shippingCost,\r\n        string memory deliveryAddress,\r\n        uint posicionTransacion\r\n    ) {\r\n        Transaction storage transaction = transactions[_transactionId];\r\n        return (\r\n            transaction.customerName,\r\n            transaction.deliveryDate,\r\n            transaction.creationDate,\r\n            transaction.total,\r\n            transaction.totalDiscount,\r\n            transaction.productCount,\r\n            transaction.paymentMethod,\r\n            transaction.shippingCost,\r\n            transaction.deliveryAddress,\r\n            transaction.posicion\r\n        );\r\n    }\r\n\r\n    function getProductTransaction(uint _transactionProductId) public view returns (\r\n        string memory idTransaction,\r\n        uint posicionTransaction,\r\n        uint idProduct,\r\n        string memory Name,\r\n        uint Price,\r\n        uint count,\r\n        string memory NameShop,\r\n        uint discount\r\n    ) {\r\n        Product storage product = products[_transactionProductId];\r\n        return (\r\n            product.idTransaction,\r\n            product.positionTransaction,\r\n            product.idProduct,\r\n            product.Name,\r\n            product.Price,\r\n            product.Count,\r\n            product.NameShop,\r\n            product.Discount\r\n        );\r\n    }\r\n\r\n    function getProductsByTransaction(string memory _idTransaction) public view returns (\r\n        uint[] memory matchingProductIds,\r\n        string[] memory matchingNames,\r\n        uint[] memory matchingPrices\r\n    ) {\r\n        uint count = 0;\r\n        uint totalProducts = transactionProductCount;\r\n\r\n        // Recorremos todos los productos para encontrar aquellos que coincidan con el idTransaction\r\n        for (uint i = 0; i < totalProducts; i++) {\r\n            if (keccak256(abi.encodePacked(products[i].idTransaction)) == keccak256(abi.encodePacked(_idTransaction))) {\r\n                count++;\r\n            }\r\n        }\r\n\r\n        // Creamos arrays con longitud igual a la cantidad de productos que coinciden\r\n        matchingProductIds = new uint[](count);\r\n        matchingNames = new string[](count);\r\n        matchingPrices = new uint[](count);\r\n\r\n        uint index = 0;\r\n\r\n        // Recorremos nuevamente todos los productos para almacenar los que coinciden\r\n        for (uint j = 0; j < totalProducts; j++) {\r\n            if (keccak256(abi.encodePacked(products[j].idTransaction)) == keccak256(abi.encodePacked(_idTransaction))) {\r\n                matchingProductIds[index] = products[j].idProduct;\r\n                matchingNames[index] = products[j].Name;\r\n                matchingPrices[index] = products[j].Price;\r\n                index++;\r\n            }\r\n        }\r\n\r\n        return (matchingProductIds, matchingNames, matchingPrices);\r\n    }\r\n\r\n    function getAllTransactions() public view returns (Transaction[] memory) {\r\n        Transaction[] memory allTransactions = new Transaction[](transactionCount);\r\n        for (uint i = 0; i < transactionCount; i++) {\r\n            allTransactions[i] = transactions[i];\r\n        }\r\n        return allTransactions;\r\n    }\r\n}",
  "sourcePath": "C:\\Users\\henry\\OneDrive\\Desktop\\Laptop\\10mo Ciclo\\Tesis 2\\Tesis2\\FrontEnd\\react-frontend\\src\\Blockchain\\contracts\\Ecommerce.sol",
  "compiler": {
    "name": "solc",
    "version": "0.8.11+commit.d7f03943.Emscripten.clang"
  },
  "schemaVersion": "3.4.16",
  "updatedAt": "2024-11-30T20:04:51.128Z",
  "networkType": "ethereum",
  "devdoc": {
    "kind": "dev",
    "methods": {},
    "version": 1
  },
  "userdoc": {
    "kind": "user",
    "methods": {},
    "version": 1
  }
}