{
  "contractName": "Ecommerce",
  "abi": [
    {
      "anonymous": false,
      "inputs": [
        {
          "indexed": true,
          "internalType": "uint256",
          "name": "transactionId",
          "type": "uint256"
        }
      ],
      "name": "TransactionCreated",
      "type": "event"
    },
    {
      "inputs": [],
      "name": "transactionCount",
      "outputs": [
        {
          "internalType": "uint256",
          "name": "",
          "type": "uint256"
        }
      ],
      "stateMutability": "view",
      "type": "function"
    },
    {
      "inputs": [
        {
          "internalType": "uint256",
          "name": "",
          "type": "uint256"
        }
      ],
      "name": "transactions",
      "outputs": [
        {
          "internalType": "string",
          "name": "customerName",
          "type": "string"
        },
        {
          "internalType": "uint256",
          "name": "deliveryDate",
          "type": "uint256"
        },
        {
          "internalType": "uint256",
          "name": "creationDate",
          "type": "uint256"
        },
        {
          "internalType": "uint256",
          "name": "total",
          "type": "uint256"
        },
        {
          "internalType": "uint256",
          "name": "totalDiscount",
          "type": "uint256"
        },
        {
          "internalType": "bool",
          "name": "claim",
          "type": "bool"
        },
        {
          "internalType": "uint256",
          "name": "productCount",
          "type": "uint256"
        },
        {
          "internalType": "string",
          "name": "paymentMethod",
          "type": "string"
        },
        {
          "internalType": "uint256",
          "name": "shippingCost",
          "type": "uint256"
        },
        {
          "internalType": "string",
          "name": "deliveryAddress",
          "type": "string"
        }
      ],
      "stateMutability": "view",
      "type": "function"
    },
    {
      "inputs": [
        {
          "internalType": "string",
          "name": "_customerName",
          "type": "string"
        },
        {
          "internalType": "uint256",
          "name": "_deliveryDate",
          "type": "uint256"
        },
        {
          "internalType": "uint256",
          "name": "_creationDate",
          "type": "uint256"
        },
        {
          "internalType": "uint256",
          "name": "_total",
          "type": "uint256"
        },
        {
          "internalType": "uint256",
          "name": "_totalDiscount",
          "type": "uint256"
        },
        {
          "internalType": "bool",
          "name": "_claim",
          "type": "bool"
        },
        {
          "internalType": "uint256",
          "name": "_productCount",
          "type": "uint256"
        },
        {
          "internalType": "string",
          "name": "_paymentMethod",
          "type": "string"
        },
        {
          "internalType": "uint256",
          "name": "_shippingCost",
          "type": "uint256"
        },
        {
          "internalType": "string",
          "name": "_deliveryAddress",
          "type": "string"
        }
      ],
      "name": "createTransaction",
      "outputs": [],
      "stateMutability": "nonpayable",
      "type": "function"
    }
  ],
  "bytecode": "0x608060405234801561001057600080fd5b5061078b806100206000396000f3fe608060405234801561001057600080fd5b50600436106100415760003560e01c80639ace38c214610046578063b77bf60014610078578063e9e5f8d81461008f575b600080fd5b610059610054366004610483565b6100a4565b60405161006f9a999897969594939291906104e9565b60405180910390f35b61008160015481565b60405190815260200161006f565b6100a261009d36600461061c565b610295565b005b6000602081905290815260409020805481906100bf906106f1565b80601f01602080910402602001604051908101604052809291908181526020018280546100eb906106f1565b80156101385780601f1061010d57610100808354040283529160200191610138565b820191906000526020600020905b81548152906001019060200180831161011b57829003601f168201915b5050505050908060010154908060020154908060030154908060040154908060050160009054906101000a900460ff169080600601549080600701805461017e906106f1565b80601f01602080910402602001604051908101604052809291908181526020018280546101aa906106f1565b80156101f75780601f106101cc576101008083540402835291602001916101f7565b820191906000526020600020905b8154815290600101906020018083116101da57829003601f168201915b505050505090806008015490806009018054610212906106f1565b80601f016020809104026020016040519081016040528092919081815260200182805461023e906106f1565b801561028b5780601f106102605761010080835404028352916020019161028b565b820191906000526020600020905b81548152906001019060200180831161026e57829003601f168201915b505050505090508a565b6040518061014001604052808b81526020018a81526020018981526020018881526020018781526020018615158152602001858152602001848152602001838152602001828152506000806001548152602001908152602001600020600082015181600001908051906020019061030d9291906103ea565b50602082810151600183015560408301516002830155606083015160038301556080830151600483015560a083015160058301805460ff191691151591909117905560c0830151600683015560e0830151805161037092600785019201906103ea565b50610100820151600882015561012082015180516103989160098401916020909101906103ea565b50506001546040519091507f20249019acac6e99959366f842671611cd943aa8071804678030725f38bc787e90600090a2600180549060006103d98361072c565b919050555050505050505050505050565b8280546103f6906106f1565b90600052602060002090601f016020900481019282610418576000855561045e565b82601f1061043157805160ff191683800117855561045e565b8280016001018555821561045e579182015b8281111561045e578251825591602001919060010190610443565b5061046a92915061046e565b5090565b5b8082111561046a576000815560010161046f565b60006020828403121561049557600080fd5b5035919050565b6000815180845260005b818110156104c2576020818501810151868301820152016104a6565b818111156104d4576000602083870101525b50601f01601f19169290920160200192915050565b60006101408083526104fd8184018e61049c565b90508b60208401528a604084015289606084015288608084015287151560a08401528660c084015282810360e0840152610537818761049c565b905084610100840152828103610120840152610553818561049c565b9d9c50505050505050505050505050565b634e487b7160e01b600052604160045260246000fd5b600082601f83011261058b57600080fd5b813567ffffffffffffffff808211156105a6576105a6610564565b604051601f8301601f19908116603f011681019082821181831017156105ce576105ce610564565b816040528381528660208588010111156105e757600080fd5b836020870160208301376000602085830101528094505050505092915050565b8035801515811461061757600080fd5b919050565b6000806000806000806000806000806101408b8d03121561063c57600080fd5b8a3567ffffffffffffffff8082111561065457600080fd5b6106608e838f0161057a565b9b5060208d01359a5060408d0135995060608d0135985060808d0135975061068a60a08e01610607565b965060c08d0135955060e08d01359150808211156106a757600080fd5b6106b38e838f0161057a565b94506101008d013593506101208d01359150808211156106d257600080fd5b506106df8d828e0161057a565b9150509295989b9194979a5092959850565b600181811c9082168061070557607f821691505b6020821081141561072657634e487b7160e01b600052602260045260246000fd5b50919050565b600060001982141561074e57634e487b7160e01b600052601160045260246000fd5b506001019056fea2646970667358221220f371874ef731429bdc7a893f101c2c5301b261c9d461e142e657cd688076e76864736f6c634300080b0033",
  "immutableReferences": {},
  "source": "// SPDX-License-Identifier: MIT\r\npragma solidity ^0.8.0;\r\n\r\ncontract Ecommerce {\r\n    struct Transaction {\r\n        string customerName;\r\n        uint deliveryDate;\r\n        uint creationDate;\r\n        uint total;\r\n        uint totalDiscount;\r\n        bool claim;\r\n        uint productCount;\r\n        string paymentMethod;\r\n        uint shippingCost;\r\n        string deliveryAddress;\r\n    }\r\n\r\n    mapping(uint => Transaction) public transactions;\r\n    uint public transactionCount;\r\n\r\n    event TransactionCreated(uint indexed transactionId);\r\n\r\n    function createTransaction(\r\n        string memory _customerName,\r\n        uint _deliveryDate,\r\n        uint _creationDate,\r\n        uint _total,\r\n        uint _totalDiscount,\r\n        bool _claim,\r\n        uint _productCount,\r\n        string memory _paymentMethod,\r\n        uint _shippingCost,\r\n        string memory _deliveryAddress\r\n    ) public {\r\n        transactions[transactionCount] = Transaction({\r\n            customerName: _customerName,\r\n            deliveryDate: _deliveryDate,\r\n            creationDate: _creationDate,\r\n            total: _total,\r\n            totalDiscount: _totalDiscount,\r\n            claim: _claim,\r\n            productCount: _productCount,\r\n            paymentMethod: _paymentMethod,\r\n            shippingCost: _shippingCost,\r\n            deliveryAddress: _deliveryAddress\r\n        });\r\n        emit TransactionCreated(transactionCount);\r\n        transactionCount++;\r\n    }\r\n}",
  "sourcePath": "C:\\Users\\henry\\OneDrive\\Desktop\\10mo Ciclo\\Tesis 2\\Tesis2\\FrontEnd\\react-frontend\\src\\Blockchain\\contracts\\Ecommerce.sol",
  "compiler": {
    "name": "solc",
    "version": "0.8.11+commit.d7f03943.Emscripten.clang"
  },
  "schemaVersion": "3.4.16",
  "updatedAt": "2024-04-17T20:30:11.135Z",
  "devdoc": {
    "kind": "dev",
    "methods": {},
    "version": 1
  },
  "userdoc": {
    "kind": "user",
    "methods": {},
    "version": 1
  }
}