{
  "contractName": "MiContrato",
  "abi": [
    {
      "inputs": [],
      "stateMutability": "nonpayable",
      "type": "constructor"
    },
    {
      "inputs": [],
      "name": "miVariable",
      "outputs": [
        {
          "internalType": "uint256",
          "name": "",
          "type": "uint256"
        }
      ],
      "stateMutability": "view",
      "type": "function",
      "constant": true
    },
    {
      "inputs": [
        {
          "internalType": "uint256",
          "name": "_valor",
          "type": "uint256"
        }
      ],
      "name": "setVariable",
      "outputs": [],
      "stateMutability": "nonpayable",
      "type": "function"
    }
  ],
  "bytecode": "0x608060405234801561001057600080fd5b50606460005560b1806100246000396000f3fe6080604052348015600f57600080fd5b506004361060325760003560e01c8063281e3daf14603757806386be3f80146051575b600080fd5b603f60005481565b60405190815260200160405180910390f35b6061605c3660046063565b600055565b005b600060208284031215607457600080fd5b503591905056fea264697066735822122057a8d62c95a3da23c9b879802846e480faff50a88265bb9879f1437a98129dea64736f6c634300080b0033",
  "immutableReferences": {},
  "source": "// SPDX-License-Identifier: MIT\r\npragma solidity ^0.8.0;\r\n\r\ncontract MiContrato {\r\n    // Esta variable será almacenada en la blockchain\r\n    uint256 public miVariable;\r\n\r\n    // Constructor del contrato que se ejecuta una vez en el momento del despliegue\r\n    constructor() {\r\n        // Inicializa la variable con un valor inicial de 100\r\n        miVariable = 100;\r\n    }\r\n\r\n    // Función para actualizar el valor de miVariable\r\n    function setVariable(uint256 _valor) public {\r\n        miVariable = _valor;\r\n    }\r\n}",
  "sourcePath": "C:\\Users\\henry\\OneDrive\\Desktop\\10mo Ciclo\\Tesis 2\\Tesis2\\FrontEnd\\react-frontend\\src\\Blockchain\\contracts\\MiContrato.sol",
  "compiler": {
    "name": "solc",
    "version": "0.8.11+commit.d7f03943.Emscripten.clang"
  },
  "schemaVersion": "3.4.16",
  "updatedAt": "2024-05-27T20:11:31.197Z",
  "networkType": "ethereum",
  "devdoc": {
    "kind": "dev",
    "methods": {},
    "version": 1
  },
  "userdoc": {
    "kind": "user",
    "methods": {},
    "version": 1
  }
}